{
	"SwapTestnetUSDC.sol": {
		"SwapTestnetUSDC": {
			"abi": [
				{
					"inputs": [
						{
							"internalType": "address",
							"name": "usdcToken",
							"type": "address"
						},
						{
							"internalType": "address",
							"name": "compoundUsdcToken",
							"type": "address"
						},
						{
							"internalType": "address",
							"name": "fauceteer",
							"type": "address"
						}
					],
					"stateMutability": "nonpayable",
					"type": "constructor"
				},
				{
					"anonymous": false,
					"inputs": [
						{
							"indexed": false,
							"internalType": "address",
							"name": "tokenIn",
							"type": "address"
						},
						{
							"indexed": false,
							"internalType": "address",
							"name": "tokenOut",
							"type": "address"
						},
						{
							"indexed": false,
							"internalType": "uint256",
							"name": "amount",
							"type": "uint256"
						},
						{
							"indexed": false,
							"internalType": "address",
							"name": "trader",
							"type": "address"
						}
					],
					"name": "Swap",
					"type": "event"
				},
				{
					"inputs": [],
					"name": "getSupportedTokens",
					"outputs": [
						{
							"internalType": "address",
							"name": "usdcToken",
							"type": "address"
						},
						{
							"internalType": "address",
							"name": "compoundUsdcToken",
							"type": "address"
						}
					],
					"stateMutability": "view",
					"type": "function"
				},
				{
					"inputs": [
						{
							"internalType": "address",
							"name": "tokenIn",
							"type": "address"
						},
						{
							"internalType": "address",
							"name": "tokenOut",
							"type": "address"
						},
						{
							"internalType": "uint256",
							"name": "amount",
							"type": "uint256"
						}
					],
					"name": "swap",
					"outputs": [],
					"stateMutability": "nonpayable",
					"type": "function"
				}
			],
			"devdoc": {
				"kind": "dev",
				"methods": {},
				"version": 1
			},
			"evm": {
				"assembly": "    /* \"SwapTestnetUSDC.sol\":660:1777  contract SwapTestnetUSDC is ReentrancyGuard {... */\n  mstore(0x40, 0xc0)\n    /* \"SwapTestnetUSDC.sol\":930:1155  constructor(address usdcToken, address compoundUsdcToken, address fauceteer) {... */\n  callvalue\n  dup1\n  iszero\n  tag_1\n  jumpi\n  0x00\n  dup1\n  revert\ntag_1:\n  pop\n  mload(0x40)\n  sub(codesize, bytecodeSize)\n  dup1\n  bytecodeSize\n  dup4\n  codecopy\n  dup2\n  dup2\n  add\n  0x40\n  mstore\n  dup2\n  add\n  swap1\n  tag_2\n  swap2\n  swap1\n  tag_3\n  jump\t// in\ntag_2:\n    /* \"@openzeppelin/contracts@4.8.0/security/ReentrancyGuard.sol\":1716:1717  1 */\n  0x01\n    /* \"@openzeppelin/contracts@4.8.0/security/ReentrancyGuard.sol\":1821:1828  _status */\n  0x00\n    /* \"@openzeppelin/contracts@4.8.0/security/ReentrancyGuard.sol\":1821:1843  _status = _NOT_ENTERED */\n  dup2\n  swap1\n  sstore\n  pop\n    /* \"SwapTestnetUSDC.sol\":1032:1041  usdcToken */\n  dup3\n    /* \"SwapTestnetUSDC.sol\":1018:1041  i_usdcToken = usdcToken */\n  0xffffffffffffffffffffffffffffffffffffffff\n  and\n  0x80\n  dup2\n  0xffffffffffffffffffffffffffffffffffffffff\n  and\n  dup2\n  mstore\n  pop\n  pop\n    /* \"SwapTestnetUSDC.sol\":1074:1091  compoundUsdcToken */\n  dup2\n    /* \"SwapTestnetUSDC.sol\":1052:1091  i_compoundUsdcToken = compoundUsdcToken */\n  0xffffffffffffffffffffffffffffffffffffffff\n  and\n  0xa0\n  dup2\n  0xffffffffffffffffffffffffffffffffffffffff\n  and\n  dup2\n  mstore\n  pop\n  pop\n    /* \"SwapTestnetUSDC.sol\":1113:1122  fauceteer */\n  dup1\n    /* \"SwapTestnetUSDC.sol\":1102:1128  IFauceteer(fauceteer).drip */\n  0xffffffffffffffffffffffffffffffffffffffff\n  and\n  0x67a5cd06\n    /* \"SwapTestnetUSDC.sol\":1129:1146  compoundUsdcToken */\n  dup4\n    /* \"SwapTestnetUSDC.sol\":1102:1147  IFauceteer(fauceteer).drip(compoundUsdcToken) */\n  mload(0x40)\n  dup3\n  0xffffffff\n  and\n  0xe0\n  shl\n  dup2\n  mstore\n  0x04\n  add\n  tag_8\n  swap2\n  swap1\n  tag_9\n  jump\t// in\ntag_8:\n  0x00\n  mload(0x40)\n  dup1\n  dup4\n  sub\n  dup2\n  0x00\n  dup8\n  dup1\n  extcodesize\n  iszero\n  dup1\n  iszero\n  tag_10\n  jumpi\n  0x00\n  dup1\n  revert\ntag_10:\n  pop\n  gas\n  call\n  iszero\n  dup1\n  iszero\n  tag_12\n  jumpi\n  returndatasize\n  0x00\n  dup1\n  returndatacopy\n  revert(0x00, returndatasize)\ntag_12:\n  pop\n  pop\n  pop\n  pop\n    /* \"SwapTestnetUSDC.sol\":930:1155  constructor(address usdcToken, address compoundUsdcToken, address fauceteer) {... */\n  pop\n  pop\n  pop\n    /* \"SwapTestnetUSDC.sol\":660:1777  contract SwapTestnetUSDC is ReentrancyGuard {... */\n  jump(tag_13)\n    /* \"#utility.yul\":88:205   */\ntag_15:\n    /* \"#utility.yul\":197:198   */\n  0x00\n    /* \"#utility.yul\":194:195   */\n  dup1\n    /* \"#utility.yul\":187:199   */\n  revert\n    /* \"#utility.yul\":334:460   */\ntag_17:\n    /* \"#utility.yul\":371:378   */\n  0x00\n    /* \"#utility.yul\":411:453   */\n  0xffffffffffffffffffffffffffffffffffffffff\n    /* \"#utility.yul\":404:409   */\n  dup3\n    /* \"#utility.yul\":400:454   */\n  and\n    /* \"#utility.yul\":389:454   */\n  swap1\n  pop\n    /* \"#utility.yul\":334:460   */\n  swap2\n  swap1\n  pop\n  jump\t// out\n    /* \"#utility.yul\":466:562   */\ntag_18:\n    /* \"#utility.yul\":503:510   */\n  0x00\n    /* \"#utility.yul\":532:556   */\n  tag_28\n    /* \"#utility.yul\":550:555   */\n  dup3\n    /* \"#utility.yul\":532:556   */\n  tag_17\n  jump\t// in\ntag_28:\n    /* \"#utility.yul\":521:556   */\n  swap1\n  pop\n    /* \"#utility.yul\":466:562   */\n  swap2\n  swap1\n  pop\n  jump\t// out\n    /* \"#utility.yul\":568:690   */\ntag_19:\n    /* \"#utility.yul\":641:665   */\n  tag_30\n    /* \"#utility.yul\":659:664   */\n  dup2\n    /* \"#utility.yul\":641:665   */\n  tag_18\n  jump\t// in\ntag_30:\n    /* \"#utility.yul\":634:639   */\n  dup2\n    /* \"#utility.yul\":631:666   */\n  eq\n    /* \"#utility.yul\":621:684   */\n  tag_31\n  jumpi\n    /* \"#utility.yul\":680:681   */\n  0x00\n    /* \"#utility.yul\":677:678   */\n  dup1\n    /* \"#utility.yul\":670:682   */\n  revert\n    /* \"#utility.yul\":621:684   */\ntag_31:\n    /* \"#utility.yul\":568:690   */\n  pop\n  jump\t// out\n    /* \"#utility.yul\":696:839   */\ntag_20:\n    /* \"#utility.yul\":753:758   */\n  0x00\n    /* \"#utility.yul\":784:790   */\n  dup2\n    /* \"#utility.yul\":778:791   */\n  mload\n    /* \"#utility.yul\":769:791   */\n  swap1\n  pop\n    /* \"#utility.yul\":800:833   */\n  tag_33\n    /* \"#utility.yul\":827:832   */\n  dup2\n    /* \"#utility.yul\":800:833   */\n  tag_19\n  jump\t// in\ntag_33:\n    /* \"#utility.yul\":696:839   */\n  swap3\n  swap2\n  pop\n  pop\n  jump\t// out\n    /* \"#utility.yul\":845:1508   */\ntag_3:\n    /* \"#utility.yul\":933:939   */\n  0x00\n    /* \"#utility.yul\":941:947   */\n  dup1\n    /* \"#utility.yul\":949:955   */\n  0x00\n    /* \"#utility.yul\":998:1000   */\n  0x60\n    /* \"#utility.yul\":986:995   */\n  dup5\n    /* \"#utility.yul\":977:984   */\n  dup7\n    /* \"#utility.yul\":973:996   */\n  sub\n    /* \"#utility.yul\":969:1001   */\n  slt\n    /* \"#utility.yul\":966:1085   */\n  iszero\n  tag_35\n  jumpi\n    /* \"#utility.yul\":1004:1083   */\n  tag_36\n  tag_15\n  jump\t// in\ntag_36:\n    /* \"#utility.yul\":966:1085   */\ntag_35:\n    /* \"#utility.yul\":1124:1125   */\n  0x00\n    /* \"#utility.yul\":1149:1213   */\n  tag_37\n    /* \"#utility.yul\":1205:1212   */\n  dup7\n    /* \"#utility.yul\":1196:1202   */\n  dup3\n    /* \"#utility.yul\":1185:1194   */\n  dup8\n    /* \"#utility.yul\":1181:1203   */\n  add\n    /* \"#utility.yul\":1149:1213   */\n  tag_20\n  jump\t// in\ntag_37:\n    /* \"#utility.yul\":1139:1213   */\n  swap4\n  pop\n    /* \"#utility.yul\":1095:1223   */\n  pop\n    /* \"#utility.yul\":1262:1264   */\n  0x20\n    /* \"#utility.yul\":1288:1352   */\n  tag_38\n    /* \"#utility.yul\":1344:1351   */\n  dup7\n    /* \"#utility.yul\":1335:1341   */\n  dup3\n    /* \"#utility.yul\":1324:1333   */\n  dup8\n    /* \"#utility.yul\":1320:1342   */\n  add\n    /* \"#utility.yul\":1288:1352   */\n  tag_20\n  jump\t// in\ntag_38:\n    /* \"#utility.yul\":1278:1352   */\n  swap3\n  pop\n    /* \"#utility.yul\":1233:1362   */\n  pop\n    /* \"#utility.yul\":1401:1403   */\n  0x40\n    /* \"#utility.yul\":1427:1491   */\n  tag_39\n    /* \"#utility.yul\":1483:1490   */\n  dup7\n    /* \"#utility.yul\":1474:1480   */\n  dup3\n    /* \"#utility.yul\":1463:1472   */\n  dup8\n    /* \"#utility.yul\":1459:1481   */\n  add\n    /* \"#utility.yul\":1427:1491   */\n  tag_20\n  jump\t// in\ntag_39:\n    /* \"#utility.yul\":1417:1491   */\n  swap2\n  pop\n    /* \"#utility.yul\":1372:1501   */\n  pop\n    /* \"#utility.yul\":845:1508   */\n  swap3\n  pop\n  swap3\n  pop\n  swap3\n  jump\t// out\n    /* \"#utility.yul\":1514:1632   */\ntag_21:\n    /* \"#utility.yul\":1601:1625   */\n  tag_41\n    /* \"#utility.yul\":1619:1624   */\n  dup2\n    /* \"#utility.yul\":1601:1625   */\n  tag_18\n  jump\t// in\ntag_41:\n    /* \"#utility.yul\":1596:1599   */\n  dup3\n    /* \"#utility.yul\":1589:1626   */\n  mstore\n    /* \"#utility.yul\":1514:1632   */\n  pop\n  pop\n  jump\t// out\n    /* \"#utility.yul\":1638:1860   */\ntag_9:\n    /* \"#utility.yul\":1731:1735   */\n  0x00\n    /* \"#utility.yul\":1769:1771   */\n  0x20\n    /* \"#utility.yul\":1758:1767   */\n  dup3\n    /* \"#utility.yul\":1754:1772   */\n  add\n    /* \"#utility.yul\":1746:1772   */\n  swap1\n  pop\n    /* \"#utility.yul\":1782:1853   */\n  tag_43\n    /* \"#utility.yul\":1850:1851   */\n  0x00\n    /* \"#utility.yul\":1839:1848   */\n  dup4\n    /* \"#utility.yul\":1835:1852   */\n  add\n    /* \"#utility.yul\":1826:1832   */\n  dup5\n    /* \"#utility.yul\":1782:1853   */\n  tag_21\n  jump\t// in\ntag_43:\n    /* \"#utility.yul\":1638:1860   */\n  swap3\n  swap2\n  pop\n  pop\n  jump\t// out\n    /* \"SwapTestnetUSDC.sol\":660:1777  contract SwapTestnetUSDC is ReentrancyGuard {... */\ntag_13:\n  mload(0x80)\n  mload(0xa0)\n  codecopy(0x00, dataOffset(sub_0), dataSize(sub_0))\n  0x00\n  assignImmutable(\"0x2d16435b3faa4516e45c961fcfb8946768323ac70484540b7ee099d570719013\")\n  0x00\n  assignImmutable(\"0xf945bcfaa2d256e0b31bacbd29e634fc5be38c54dfffe1d2846dd5a25365d7b9\")\n  return(0x00, dataSize(sub_0))\nstop\n\nsub_0: assembly {\n        /* \"SwapTestnetUSDC.sol\":660:1777  contract SwapTestnetUSDC is ReentrancyGuard {... */\n      mstore(0x40, 0x80)\n      callvalue\n      dup1\n      iszero\n      tag_1\n      jumpi\n      0x00\n      dup1\n      revert\n    tag_1:\n      pop\n      jumpi(tag_2, lt(calldatasize, 0x04))\n      shr(0xe0, calldataload(0x00))\n      dup1\n      0xd3c7c2c7\n      eq\n      tag_3\n      jumpi\n      dup1\n      0xdf791e50\n      eq\n      tag_4\n      jumpi\n    tag_2:\n      0x00\n      dup1\n      revert\n        /* \"SwapTestnetUSDC.sol\":1617:1774  function getSupportedTokens() external view returns(address usdcToken, address compoundUsdcToken) {... */\n    tag_3:\n      tag_5\n      tag_6\n      jump\t// in\n    tag_5:\n      mload(0x40)\n      tag_7\n      swap3\n      swap2\n      swap1\n      tag_8\n      jump\t// in\n    tag_7:\n      mload(0x40)\n      dup1\n      swap2\n      sub\n      swap1\n      return\n        /* \"SwapTestnetUSDC.sol\":1163:1609  function swap(address tokenIn, address tokenOut, uint256 amount) external nonReentrant {... */\n    tag_4:\n      tag_9\n      0x04\n      dup1\n      calldatasize\n      sub\n      dup2\n      add\n      swap1\n      tag_10\n      swap2\n      swap1\n      tag_11\n      jump\t// in\n    tag_10:\n      tag_12\n      jump\t// in\n    tag_9:\n      stop\n        /* \"SwapTestnetUSDC.sol\":1617:1774  function getSupportedTokens() external view returns(address usdcToken, address compoundUsdcToken) {... */\n    tag_6:\n        /* \"SwapTestnetUSDC.sol\":1669:1686  address usdcToken */\n      0x00\n        /* \"SwapTestnetUSDC.sol\":1688:1713  address compoundUsdcToken */\n      dup1\n        /* \"SwapTestnetUSDC.sol\":1733:1744  i_usdcToken */\n      immutable(\"0xf945bcfaa2d256e0b31bacbd29e634fc5be38c54dfffe1d2846dd5a25365d7b9\")\n        /* \"SwapTestnetUSDC.sol\":1746:1765  i_compoundUsdcToken */\n      immutable(\"0x2d16435b3faa4516e45c961fcfb8946768323ac70484540b7ee099d570719013\")\n        /* \"SwapTestnetUSDC.sol\":1726:1766  return(i_usdcToken, i_compoundUsdcToken) */\n      swap2\n      pop\n      swap2\n      pop\n        /* \"SwapTestnetUSDC.sol\":1617:1774  function getSupportedTokens() external view returns(address usdcToken, address compoundUsdcToken) {... */\n      swap1\n      swap2\n      jump\t// out\n        /* \"SwapTestnetUSDC.sol\":1163:1609  function swap(address tokenIn, address tokenOut, uint256 amount) external nonReentrant {... */\n    tag_12:\n        /* \"@openzeppelin/contracts@4.8.0/security/ReentrancyGuard.sol\":2261:2282  _nonReentrantBefore() */\n      tag_15\n        /* \"@openzeppelin/contracts@4.8.0/security/ReentrancyGuard.sol\":2261:2280  _nonReentrantBefore */\n      tag_16\n        /* \"@openzeppelin/contracts@4.8.0/security/ReentrancyGuard.sol\":2261:2282  _nonReentrantBefore() */\n      jump\t// in\n    tag_15:\n        /* \"SwapTestnetUSDC.sol\":1280:1291  i_usdcToken */\n      immutable(\"0xf945bcfaa2d256e0b31bacbd29e634fc5be38c54dfffe1d2846dd5a25365d7b9\")\n        /* \"SwapTestnetUSDC.sol\":1269:1291  tokenIn == i_usdcToken */\n      0xffffffffffffffffffffffffffffffffffffffff\n      and\n        /* \"SwapTestnetUSDC.sol\":1269:1276  tokenIn */\n      dup4\n        /* \"SwapTestnetUSDC.sol\":1269:1291  tokenIn == i_usdcToken */\n      0xffffffffffffffffffffffffffffffffffffffff\n      and\n      eq\n        /* \"SwapTestnetUSDC.sol\":1269:1325  tokenIn == i_usdcToken || tokenIn == i_compoundUsdcToken */\n      dup1\n      tag_18\n      jumpi\n      pop\n        /* \"SwapTestnetUSDC.sol\":1306:1325  i_compoundUsdcToken */\n      immutable(\"0x2d16435b3faa4516e45c961fcfb8946768323ac70484540b7ee099d570719013\")\n        /* \"SwapTestnetUSDC.sol\":1295:1325  tokenIn == i_compoundUsdcToken */\n      0xffffffffffffffffffffffffffffffffffffffff\n      and\n        /* \"SwapTestnetUSDC.sol\":1295:1302  tokenIn */\n      dup4\n        /* \"SwapTestnetUSDC.sol\":1295:1325  tokenIn == i_compoundUsdcToken */\n      0xffffffffffffffffffffffffffffffffffffffff\n      and\n      eq\n        /* \"SwapTestnetUSDC.sol\":1269:1325  tokenIn == i_usdcToken || tokenIn == i_compoundUsdcToken */\n    tag_18:\n        /* \"SwapTestnetUSDC.sol\":1261:1326  require(tokenIn == i_usdcToken || tokenIn == i_compoundUsdcToken) */\n      tag_19\n      jumpi\n      0x00\n      dup1\n      revert\n    tag_19:\n        /* \"SwapTestnetUSDC.sol\":1357:1368  i_usdcToken */\n      immutable(\"0xf945bcfaa2d256e0b31bacbd29e634fc5be38c54dfffe1d2846dd5a25365d7b9\")\n        /* \"SwapTestnetUSDC.sol\":1345:1368  tokenOut == i_usdcToken */\n      0xffffffffffffffffffffffffffffffffffffffff\n      and\n        /* \"SwapTestnetUSDC.sol\":1345:1353  tokenOut */\n      dup3\n        /* \"SwapTestnetUSDC.sol\":1345:1368  tokenOut == i_usdcToken */\n      0xffffffffffffffffffffffffffffffffffffffff\n      and\n      eq\n        /* \"SwapTestnetUSDC.sol\":1345:1403  tokenOut == i_usdcToken || tokenOut == i_compoundUsdcToken */\n      dup1\n      tag_20\n      jumpi\n      pop\n        /* \"SwapTestnetUSDC.sol\":1384:1403  i_compoundUsdcToken */\n      immutable(\"0x2d16435b3faa4516e45c961fcfb8946768323ac70484540b7ee099d570719013\")\n        /* \"SwapTestnetUSDC.sol\":1372:1403  tokenOut == i_compoundUsdcToken */\n      0xffffffffffffffffffffffffffffffffffffffff\n      and\n        /* \"SwapTestnetUSDC.sol\":1372:1380  tokenOut */\n      dup3\n        /* \"SwapTestnetUSDC.sol\":1372:1403  tokenOut == i_compoundUsdcToken */\n      0xffffffffffffffffffffffffffffffffffffffff\n      and\n      eq\n        /* \"SwapTestnetUSDC.sol\":1345:1403  tokenOut == i_usdcToken || tokenOut == i_compoundUsdcToken */\n    tag_20:\n        /* \"SwapTestnetUSDC.sol\":1337:1404  require(tokenOut == i_usdcToken || tokenOut == i_compoundUsdcToken) */\n      tag_21\n      jumpi\n      0x00\n      dup1\n      revert\n    tag_21:\n        /* \"SwapTestnetUSDC.sol\":1417:1484  IERC20(tokenIn).safeTransferFrom(msg.sender, address(this), amount) */\n      tag_22\n        /* \"SwapTestnetUSDC.sol\":1450:1460  msg.sender */\n      caller\n        /* \"SwapTestnetUSDC.sol\":1470:1474  this */\n      address\n        /* \"SwapTestnetUSDC.sol\":1477:1483  amount */\n      dup4\n        /* \"SwapTestnetUSDC.sol\":1424:1431  tokenIn */\n      dup7\n        /* \"SwapTestnetUSDC.sol\":1417:1449  IERC20(tokenIn).safeTransferFrom */\n      0xffffffffffffffffffffffffffffffffffffffff\n      and\n      tag_23\n      swap1\n        /* \"SwapTestnetUSDC.sol\":1417:1484  IERC20(tokenIn).safeTransferFrom(msg.sender, address(this), amount) */\n      swap4\n      swap3\n      swap2\n      swap1\n      0xffffffff\n      and\n      jump\t// in\n    tag_22:\n        /* \"SwapTestnetUSDC.sol\":1502:1510  tokenOut */\n      dup2\n        /* \"SwapTestnetUSDC.sol\":1495:1520  IERC20(tokenOut).transfer */\n      0xffffffffffffffffffffffffffffffffffffffff\n      and\n      0xa9059cbb\n        /* \"SwapTestnetUSDC.sol\":1521:1531  msg.sender */\n      caller\n        /* \"SwapTestnetUSDC.sol\":1533:1539  amount */\n      dup4\n        /* \"SwapTestnetUSDC.sol\":1495:1540  IERC20(tokenOut).transfer(msg.sender, amount) */\n      mload(0x40)\n      dup4\n      0xffffffff\n      and\n      0xe0\n      shl\n      dup2\n      mstore\n      0x04\n      add\n      tag_24\n      swap3\n      swap2\n      swap1\n      tag_25\n      jump\t// in\n    tag_24:\n      0x20\n      mload(0x40)\n      dup1\n      dup4\n      sub\n      dup2\n      0x00\n      dup8\n      gas\n      call\n      iszero\n      dup1\n      iszero\n      tag_27\n      jumpi\n      returndatasize\n      0x00\n      dup1\n      returndatacopy\n      revert(0x00, returndatasize)\n    tag_27:\n      pop\n      pop\n      pop\n      pop\n      mload(0x40)\n      returndatasize\n      not(0x1f)\n      0x1f\n      dup3\n      add\n      and\n      dup3\n      add\n      dup1\n      0x40\n      mstore\n      pop\n      dup2\n      add\n      swap1\n      tag_28\n      swap2\n      swap1\n      tag_29\n      jump\t// in\n    tag_28:\n      pop\n        /* \"SwapTestnetUSDC.sol\":1558:1601  Swap(tokenIn, tokenOut, amount, msg.sender) */\n      0xb3822e221d737fbfd984649052a302a883d38a40f7ae591e3bcb5069eedc2a59\n        /* \"SwapTestnetUSDC.sol\":1563:1570  tokenIn */\n      dup4\n        /* \"SwapTestnetUSDC.sol\":1572:1580  tokenOut */\n      dup4\n        /* \"SwapTestnetUSDC.sol\":1582:1588  amount */\n      dup4\n        /* \"SwapTestnetUSDC.sol\":1590:1600  msg.sender */\n      caller\n        /* \"SwapTestnetUSDC.sol\":1558:1601  Swap(tokenIn, tokenOut, amount, msg.sender) */\n      mload(0x40)\n      tag_30\n      swap5\n      swap4\n      swap3\n      swap2\n      swap1\n      tag_31\n      jump\t// in\n    tag_30:\n      mload(0x40)\n      dup1\n      swap2\n      sub\n      swap1\n      log1\n        /* \"@openzeppelin/contracts@4.8.0/security/ReentrancyGuard.sol\":2303:2323  _nonReentrantAfter() */\n      tag_32\n        /* \"@openzeppelin/contracts@4.8.0/security/ReentrancyGuard.sol\":2303:2321  _nonReentrantAfter */\n      tag_33\n        /* \"@openzeppelin/contracts@4.8.0/security/ReentrancyGuard.sol\":2303:2323  _nonReentrantAfter() */\n      jump\t// in\n    tag_32:\n        /* \"SwapTestnetUSDC.sol\":1163:1609  function swap(address tokenIn, address tokenOut, uint256 amount) external nonReentrant {... */\n      pop\n      pop\n      pop\n      jump\t// out\n        /* \"@openzeppelin/contracts@4.8.0/security/ReentrancyGuard.sol\":2336:2623  function _nonReentrantBefore() private {... */\n    tag_16:\n        /* \"@openzeppelin/contracts@4.8.0/security/ReentrancyGuard.sol\":1759:1760  2 */\n      0x02\n        /* \"@openzeppelin/contracts@4.8.0/security/ReentrancyGuard.sol\":2468:2475  _status */\n      sload(0x00)\n        /* \"@openzeppelin/contracts@4.8.0/security/ReentrancyGuard.sol\":2468:2487  _status != _ENTERED */\n      sub\n        /* \"@openzeppelin/contracts@4.8.0/security/ReentrancyGuard.sol\":2460:2523  require(_status != _ENTERED, \"ReentrancyGuard: reentrant call\") */\n      tag_35\n      jumpi\n      mload(0x40)\n      0x08c379a000000000000000000000000000000000000000000000000000000000\n      dup2\n      mstore\n      0x04\n      add\n      tag_36\n      swap1\n      tag_37\n      jump\t// in\n    tag_36:\n      mload(0x40)\n      dup1\n      swap2\n      sub\n      swap1\n      revert\n    tag_35:\n        /* \"@openzeppelin/contracts@4.8.0/security/ReentrancyGuard.sol\":1759:1760  2 */\n      0x02\n        /* \"@openzeppelin/contracts@4.8.0/security/ReentrancyGuard.sol\":2598:2605  _status */\n      0x00\n        /* \"@openzeppelin/contracts@4.8.0/security/ReentrancyGuard.sol\":2598:2616  _status = _ENTERED */\n      dup2\n      swap1\n      sstore\n      pop\n        /* \"@openzeppelin/contracts@4.8.0/security/ReentrancyGuard.sol\":2336:2623  function _nonReentrantBefore() private {... */\n      jump\t// out\n        /* \"@chainlink/contracts-ccip/src/v0.8/vendor/openzeppelin-solidity/v4.8.0/token/ERC20/utils/SafeERC20.sol\":948:1165  function safeTransferFrom(... */\n    tag_23:\n        /* \"@chainlink/contracts-ccip/src/v0.8/vendor/openzeppelin-solidity/v4.8.0/token/ERC20/utils/SafeERC20.sol\":1064:1160  _callOptionalReturn(token, abi.encodeWithSelector(token.transferFrom.selector, from, to, value)) */\n      tag_39\n        /* \"@chainlink/contracts-ccip/src/v0.8/vendor/openzeppelin-solidity/v4.8.0/token/ERC20/utils/SafeERC20.sol\":1084:1089  token */\n      dup5\n        /* \"@chainlink/contracts-ccip/src/v0.8/vendor/openzeppelin-solidity/v4.8.0/token/ERC20/utils/SafeERC20.sol\":1114:1141  token.transferFrom.selector */\n      shl(0xe0, 0x23b872dd)\n        /* \"@chainlink/contracts-ccip/src/v0.8/vendor/openzeppelin-solidity/v4.8.0/token/ERC20/utils/SafeERC20.sol\":1143:1147  from */\n      dup6\n        /* \"@chainlink/contracts-ccip/src/v0.8/vendor/openzeppelin-solidity/v4.8.0/token/ERC20/utils/SafeERC20.sol\":1149:1151  to */\n      dup6\n        /* \"@chainlink/contracts-ccip/src/v0.8/vendor/openzeppelin-solidity/v4.8.0/token/ERC20/utils/SafeERC20.sol\":1153:1158  value */\n      dup6\n        /* \"@chainlink/contracts-ccip/src/v0.8/vendor/openzeppelin-solidity/v4.8.0/token/ERC20/utils/SafeERC20.sol\":1091:1159  abi.encodeWithSelector(token.transferFrom.selector, from, to, value) */\n      add(0x24, mload(0x40))\n      tag_40\n      swap4\n      swap3\n      swap2\n      swap1\n      tag_41\n      jump\t// in\n    tag_40:\n      mload(0x40)\n      0x20\n      dup2\n      dup4\n      sub\n      sub\n      dup2\n      mstore\n      swap1\n      0x40\n      mstore\n      swap1\n      not(0xffffffffffffffffffffffffffffffffffffffffffffffffffffffff)\n      and\n      0x20\n      dup3\n      add\n      dup1\n      mload\n      0xffffffffffffffffffffffffffffffffffffffffffffffffffffffff\n      dup4\n      dup2\n      dup4\n      and\n      or\n      dup4\n      mstore\n      pop\n      pop\n      pop\n      pop\n        /* \"@chainlink/contracts-ccip/src/v0.8/vendor/openzeppelin-solidity/v4.8.0/token/ERC20/utils/SafeERC20.sol\":1064:1083  _callOptionalReturn */\n      tag_42\n        /* \"@chainlink/contracts-ccip/src/v0.8/vendor/openzeppelin-solidity/v4.8.0/token/ERC20/utils/SafeERC20.sol\":1064:1160  _callOptionalReturn(token, abi.encodeWithSelector(token.transferFrom.selector, from, to, value)) */\n      jump\t// in\n    tag_39:\n        /* \"@chainlink/contracts-ccip/src/v0.8/vendor/openzeppelin-solidity/v4.8.0/token/ERC20/utils/SafeERC20.sol\":948:1165  function safeTransferFrom(... */\n      pop\n      pop\n      pop\n      pop\n      jump\t// out\n        /* \"@openzeppelin/contracts@4.8.0/security/ReentrancyGuard.sol\":2629:2838  function _nonReentrantAfter() private {... */\n    tag_33:\n        /* \"@openzeppelin/contracts@4.8.0/security/ReentrancyGuard.sol\":1716:1717  1 */\n      0x01\n        /* \"@openzeppelin/contracts@4.8.0/security/ReentrancyGuard.sol\":2809:2816  _status */\n      0x00\n        /* \"@openzeppelin/contracts@4.8.0/security/ReentrancyGuard.sol\":2809:2831  _status = _NOT_ENTERED */\n      dup2\n      swap1\n      sstore\n      pop\n        /* \"@openzeppelin/contracts@4.8.0/security/ReentrancyGuard.sol\":2629:2838  function _nonReentrantAfter() private {... */\n      jump\t// out\n        /* \"@chainlink/contracts-ccip/src/v0.8/vendor/openzeppelin-solidity/v4.8.0/token/ERC20/utils/SafeERC20.sol\":3485:4153  function _callOptionalReturn(IERC20 token, bytes memory data) private {... */\n    tag_42:\n        /* \"@chainlink/contracts-ccip/src/v0.8/vendor/openzeppelin-solidity/v4.8.0/token/ERC20/utils/SafeERC20.sol\":3888:3911  bytes memory returndata */\n      0x00\n        /* \"@chainlink/contracts-ccip/src/v0.8/vendor/openzeppelin-solidity/v4.8.0/token/ERC20/utils/SafeERC20.sol\":3914:3983  address(token).functionCall(data, \"SafeERC20: low-level call failed\") */\n      tag_45\n        /* \"@chainlink/contracts-ccip/src/v0.8/vendor/openzeppelin-solidity/v4.8.0/token/ERC20/utils/SafeERC20.sol\":3942:3946  data */\n      dup3\n        /* \"@chainlink/contracts-ccip/src/v0.8/vendor/openzeppelin-solidity/v4.8.0/token/ERC20/utils/SafeERC20.sol\":3914:3983  address(token).functionCall(data, \"SafeERC20: low-level call failed\") */\n      mload(0x40)\n      dup1\n      0x40\n      add\n      0x40\n      mstore\n      dup1\n      0x20\n      dup2\n      mstore\n      0x20\n      add\n      0x5361666545524332303a206c6f772d6c6576656c2063616c6c206661696c6564\n      dup2\n      mstore\n      pop\n        /* \"@chainlink/contracts-ccip/src/v0.8/vendor/openzeppelin-solidity/v4.8.0/token/ERC20/utils/SafeERC20.sol\":3922:3927  token */\n      dup6\n        /* \"@chainlink/contracts-ccip/src/v0.8/vendor/openzeppelin-solidity/v4.8.0/token/ERC20/utils/SafeERC20.sol\":3914:3941  address(token).functionCall */\n      0xffffffffffffffffffffffffffffffffffffffff\n      and\n      tag_46\n      swap1\n        /* \"@chainlink/contracts-ccip/src/v0.8/vendor/openzeppelin-solidity/v4.8.0/token/ERC20/utils/SafeERC20.sol\":3914:3983  address(token).functionCall(data, \"SafeERC20: low-level call failed\") */\n      swap3\n      swap2\n      swap1\n      0xffffffff\n      and\n      jump\t// in\n    tag_45:\n        /* \"@chainlink/contracts-ccip/src/v0.8/vendor/openzeppelin-solidity/v4.8.0/token/ERC20/utils/SafeERC20.sol\":3888:3983  bytes memory returndata = address(token).functionCall(data, \"SafeERC20: low-level call failed\") */\n      swap1\n      pop\n        /* \"@chainlink/contracts-ccip/src/v0.8/vendor/openzeppelin-solidity/v4.8.0/token/ERC20/utils/SafeERC20.sol\":4013:4014  0 */\n      0x00\n        /* \"@chainlink/contracts-ccip/src/v0.8/vendor/openzeppelin-solidity/v4.8.0/token/ERC20/utils/SafeERC20.sol\":3993:4003  returndata */\n      dup2\n        /* \"@chainlink/contracts-ccip/src/v0.8/vendor/openzeppelin-solidity/v4.8.0/token/ERC20/utils/SafeERC20.sol\":3993:4010  returndata.length */\n      mload\n        /* \"@chainlink/contracts-ccip/src/v0.8/vendor/openzeppelin-solidity/v4.8.0/token/ERC20/utils/SafeERC20.sol\":3993:4014  returndata.length > 0 */\n      gt\n        /* \"@chainlink/contracts-ccip/src/v0.8/vendor/openzeppelin-solidity/v4.8.0/token/ERC20/utils/SafeERC20.sol\":3989:4149  if (returndata.length > 0) {... */\n      iszero\n      tag_47\n      jumpi\n        /* \"@chainlink/contracts-ccip/src/v0.8/vendor/openzeppelin-solidity/v4.8.0/token/ERC20/utils/SafeERC20.sol\":4076:4086  returndata */\n      dup1\n        /* \"@chainlink/contracts-ccip/src/v0.8/vendor/openzeppelin-solidity/v4.8.0/token/ERC20/utils/SafeERC20.sol\":4065:4095  abi.decode(returndata, (bool)) */\n      dup1\n      0x20\n      add\n      swap1\n      mload\n      dup2\n      add\n      swap1\n      tag_48\n      swap2\n      swap1\n      tag_29\n      jump\t// in\n    tag_48:\n        /* \"@chainlink/contracts-ccip/src/v0.8/vendor/openzeppelin-solidity/v4.8.0/token/ERC20/utils/SafeERC20.sol\":4057:4142  require(abi.decode(returndata, (bool)), \"SafeERC20: ERC20 operation did not succeed\") */\n      tag_49\n      jumpi\n      mload(0x40)\n      0x08c379a000000000000000000000000000000000000000000000000000000000\n      dup2\n      mstore\n      0x04\n      add\n      tag_50\n      swap1\n      tag_51\n      jump\t// in\n    tag_50:\n      mload(0x40)\n      dup1\n      swap2\n      sub\n      swap1\n      revert\n    tag_49:\n        /* \"@chainlink/contracts-ccip/src/v0.8/vendor/openzeppelin-solidity/v4.8.0/token/ERC20/utils/SafeERC20.sol\":3989:4149  if (returndata.length > 0) {... */\n    tag_47:\n        /* \"@chainlink/contracts-ccip/src/v0.8/vendor/openzeppelin-solidity/v4.8.0/token/ERC20/utils/SafeERC20.sol\":3555:4153  {... */\n      pop\n        /* \"@chainlink/contracts-ccip/src/v0.8/vendor/openzeppelin-solidity/v4.8.0/token/ERC20/utils/SafeERC20.sol\":3485:4153  function _callOptionalReturn(IERC20 token, bytes memory data) private {... */\n      pop\n      pop\n      jump\t// out\n        /* \"@chainlink/contracts-ccip/src/v0.8/vendor/openzeppelin-solidity/v4.8.0/utils/Address.sol\":3695:3898  function functionCall(... */\n    tag_46:\n        /* \"@chainlink/contracts-ccip/src/v0.8/vendor/openzeppelin-solidity/v4.8.0/utils/Address.sol\":3814:3826  bytes memory */\n      0x60\n        /* \"@chainlink/contracts-ccip/src/v0.8/vendor/openzeppelin-solidity/v4.8.0/utils/Address.sol\":3841:3893  functionCallWithValue(target, data, 0, errorMessage) */\n      tag_53\n        /* \"@chainlink/contracts-ccip/src/v0.8/vendor/openzeppelin-solidity/v4.8.0/utils/Address.sol\":3863:3869  target */\n      dup5\n        /* \"@chainlink/contracts-ccip/src/v0.8/vendor/openzeppelin-solidity/v4.8.0/utils/Address.sol\":3871:3875  data */\n      dup5\n        /* \"@chainlink/contracts-ccip/src/v0.8/vendor/openzeppelin-solidity/v4.8.0/utils/Address.sol\":3877:3878  0 */\n      0x00\n        /* \"@chainlink/contracts-ccip/src/v0.8/vendor/openzeppelin-solidity/v4.8.0/utils/Address.sol\":3880:3892  errorMessage */\n      dup6\n        /* \"@chainlink/contracts-ccip/src/v0.8/vendor/openzeppelin-solidity/v4.8.0/utils/Address.sol\":3841:3862  functionCallWithValue */\n      tag_54\n        /* \"@chainlink/contracts-ccip/src/v0.8/vendor/openzeppelin-solidity/v4.8.0/utils/Address.sol\":3841:3893  functionCallWithValue(target, data, 0, errorMessage) */\n      jump\t// in\n    tag_53:\n        /* \"@chainlink/contracts-ccip/src/v0.8/vendor/openzeppelin-solidity/v4.8.0/utils/Address.sol\":3834:3893  return functionCallWithValue(target, data, 0, errorMessage) */\n      swap1\n      pop\n        /* \"@chainlink/contracts-ccip/src/v0.8/vendor/openzeppelin-solidity/v4.8.0/utils/Address.sol\":3695:3898  function functionCall(... */\n      swap4\n      swap3\n      pop\n      pop\n      pop\n      jump\t// out\n        /* \"@chainlink/contracts-ccip/src/v0.8/vendor/openzeppelin-solidity/v4.8.0/utils/Address.sol\":4704:5118  function functionCallWithValue(... */\n    tag_54:\n        /* \"@chainlink/contracts-ccip/src/v0.8/vendor/openzeppelin-solidity/v4.8.0/utils/Address.sol\":4851:4863  bytes memory */\n      0x60\n        /* \"@chainlink/contracts-ccip/src/v0.8/vendor/openzeppelin-solidity/v4.8.0/utils/Address.sol\":4904:4909  value */\n      dup3\n        /* \"@chainlink/contracts-ccip/src/v0.8/vendor/openzeppelin-solidity/v4.8.0/utils/Address.sol\":4879:4900  address(this).balance */\n      selfbalance\n        /* \"@chainlink/contracts-ccip/src/v0.8/vendor/openzeppelin-solidity/v4.8.0/utils/Address.sol\":4879:4909  address(this).balance >= value */\n      lt\n      iszero\n        /* \"@chainlink/contracts-ccip/src/v0.8/vendor/openzeppelin-solidity/v4.8.0/utils/Address.sol\":4871:4952  require(address(this).balance >= value, \"Address: insufficient balance for call\") */\n      tag_56\n      jumpi\n      mload(0x40)\n      0x08c379a000000000000000000000000000000000000000000000000000000000\n      dup2\n      mstore\n      0x04\n      add\n      tag_57\n      swap1\n      tag_58\n      jump\t// in\n    tag_57:\n      mload(0x40)\n      dup1\n      swap2\n      sub\n      swap1\n      revert\n    tag_56:\n        /* \"@chainlink/contracts-ccip/src/v0.8/vendor/openzeppelin-solidity/v4.8.0/utils/Address.sol\":4959:4971  bool success */\n      0x00\n        /* \"@chainlink/contracts-ccip/src/v0.8/vendor/openzeppelin-solidity/v4.8.0/utils/Address.sol\":4973:4996  bytes memory returndata */\n      dup1\n        /* \"@chainlink/contracts-ccip/src/v0.8/vendor/openzeppelin-solidity/v4.8.0/utils/Address.sol\":5000:5006  target */\n      dup7\n        /* \"@chainlink/contracts-ccip/src/v0.8/vendor/openzeppelin-solidity/v4.8.0/utils/Address.sol\":5000:5011  target.call */\n      0xffffffffffffffffffffffffffffffffffffffff\n      and\n        /* \"@chainlink/contracts-ccip/src/v0.8/vendor/openzeppelin-solidity/v4.8.0/utils/Address.sol\":5019:5024  value */\n      dup6\n        /* \"@chainlink/contracts-ccip/src/v0.8/vendor/openzeppelin-solidity/v4.8.0/utils/Address.sol\":5026:5030  data */\n      dup8\n        /* \"@chainlink/contracts-ccip/src/v0.8/vendor/openzeppelin-solidity/v4.8.0/utils/Address.sol\":5000:5031  target.call{value: value}(data) */\n      mload(0x40)\n      tag_59\n      swap2\n      swap1\n      tag_60\n      jump\t// in\n    tag_59:\n      0x00\n      mload(0x40)\n      dup1\n      dup4\n      sub\n      dup2\n      dup6\n      dup8\n      gas\n      call\n      swap3\n      pop\n      pop\n      pop\n      returndatasize\n      dup1\n      0x00\n      dup2\n      eq\n      tag_63\n      jumpi\n      mload(0x40)\n      swap2\n      pop\n      and(add(returndatasize, 0x3f), not(0x1f))\n      dup3\n      add\n      0x40\n      mstore\n      returndatasize\n      dup3\n      mstore\n      returndatasize\n      0x00\n      0x20\n      dup5\n      add\n      returndatacopy\n      jump(tag_62)\n    tag_63:\n      0x60\n      swap2\n      pop\n    tag_62:\n      pop\n        /* \"@chainlink/contracts-ccip/src/v0.8/vendor/openzeppelin-solidity/v4.8.0/utils/Address.sol\":4958:5031  (bool success, bytes memory returndata) = target.call{value: value}(data) */\n      swap2\n      pop\n      swap2\n      pop\n        /* \"@chainlink/contracts-ccip/src/v0.8/vendor/openzeppelin-solidity/v4.8.0/utils/Address.sol\":5044:5113  verifyCallResultFromTarget(target, success, returndata, errorMessage) */\n      tag_64\n        /* \"@chainlink/contracts-ccip/src/v0.8/vendor/openzeppelin-solidity/v4.8.0/utils/Address.sol\":5071:5077  target */\n      dup8\n        /* \"@chainlink/contracts-ccip/src/v0.8/vendor/openzeppelin-solidity/v4.8.0/utils/Address.sol\":5079:5086  success */\n      dup4\n        /* \"@chainlink/contracts-ccip/src/v0.8/vendor/openzeppelin-solidity/v4.8.0/utils/Address.sol\":5088:5098  returndata */\n      dup4\n        /* \"@chainlink/contracts-ccip/src/v0.8/vendor/openzeppelin-solidity/v4.8.0/utils/Address.sol\":5100:5112  errorMessage */\n      dup8\n        /* \"@chainlink/contracts-ccip/src/v0.8/vendor/openzeppelin-solidity/v4.8.0/utils/Address.sol\":5044:5070  verifyCallResultFromTarget */\n      tag_65\n        /* \"@chainlink/contracts-ccip/src/v0.8/vendor/openzeppelin-solidity/v4.8.0/utils/Address.sol\":5044:5113  verifyCallResultFromTarget(target, success, returndata, errorMessage) */\n      jump\t// in\n    tag_64:\n        /* \"@chainlink/contracts-ccip/src/v0.8/vendor/openzeppelin-solidity/v4.8.0/utils/Address.sol\":5037:5113  return verifyCallResultFromTarget(target, success, returndata, errorMessage) */\n      swap3\n      pop\n      pop\n      pop\n        /* \"@chainlink/contracts-ccip/src/v0.8/vendor/openzeppelin-solidity/v4.8.0/utils/Address.sol\":4704:5118  function functionCallWithValue(... */\n      swap5\n      swap4\n      pop\n      pop\n      pop\n      pop\n      jump\t// out\n        /* \"@chainlink/contracts-ccip/src/v0.8/vendor/openzeppelin-solidity/v4.8.0/utils/Address.sol\":7048:7596  function verifyCallResultFromTarget(... */\n    tag_65:\n        /* \"@chainlink/contracts-ccip/src/v0.8/vendor/openzeppelin-solidity/v4.8.0/utils/Address.sol\":7210:7222  bytes memory */\n      0x60\n        /* \"@chainlink/contracts-ccip/src/v0.8/vendor/openzeppelin-solidity/v4.8.0/utils/Address.sol\":7234:7241  success */\n      dup4\n        /* \"@chainlink/contracts-ccip/src/v0.8/vendor/openzeppelin-solidity/v4.8.0/utils/Address.sol\":7230:7592  if (success) {... */\n      iszero\n      tag_67\n      jumpi\n        /* \"@chainlink/contracts-ccip/src/v0.8/vendor/openzeppelin-solidity/v4.8.0/utils/Address.sol\":7276:7277  0 */\n      0x00\n        /* \"@chainlink/contracts-ccip/src/v0.8/vendor/openzeppelin-solidity/v4.8.0/utils/Address.sol\":7255:7265  returndata */\n      dup4\n        /* \"@chainlink/contracts-ccip/src/v0.8/vendor/openzeppelin-solidity/v4.8.0/utils/Address.sol\":7255:7272  returndata.length */\n      mload\n        /* \"@chainlink/contracts-ccip/src/v0.8/vendor/openzeppelin-solidity/v4.8.0/utils/Address.sol\":7255:7277  returndata.length == 0 */\n      sub\n        /* \"@chainlink/contracts-ccip/src/v0.8/vendor/openzeppelin-solidity/v4.8.0/utils/Address.sol\":7251:7507  if (returndata.length == 0) {... */\n      tag_68\n      jumpi\n        /* \"@chainlink/contracts-ccip/src/v0.8/vendor/openzeppelin-solidity/v4.8.0/utils/Address.sol\":7446:7464  isContract(target) */\n      tag_69\n        /* \"@chainlink/contracts-ccip/src/v0.8/vendor/openzeppelin-solidity/v4.8.0/utils/Address.sol\":7457:7463  target */\n      dup6\n        /* \"@chainlink/contracts-ccip/src/v0.8/vendor/openzeppelin-solidity/v4.8.0/utils/Address.sol\":7446:7456  isContract */\n      tag_70\n        /* \"@chainlink/contracts-ccip/src/v0.8/vendor/openzeppelin-solidity/v4.8.0/utils/Address.sol\":7446:7464  isContract(target) */\n      jump\t// in\n    tag_69:\n        /* \"@chainlink/contracts-ccip/src/v0.8/vendor/openzeppelin-solidity/v4.8.0/utils/Address.sol\":7438:7498  require(isContract(target), \"Address: call to non-contract\") */\n      tag_71\n      jumpi\n      mload(0x40)\n      0x08c379a000000000000000000000000000000000000000000000000000000000\n      dup2\n      mstore\n      0x04\n      add\n      tag_72\n      swap1\n      tag_73\n      jump\t// in\n    tag_72:\n      mload(0x40)\n      dup1\n      swap2\n      sub\n      swap1\n      revert\n    tag_71:\n        /* \"@chainlink/contracts-ccip/src/v0.8/vendor/openzeppelin-solidity/v4.8.0/utils/Address.sol\":7251:7507  if (returndata.length == 0) {... */\n    tag_68:\n        /* \"@chainlink/contracts-ccip/src/v0.8/vendor/openzeppelin-solidity/v4.8.0/utils/Address.sol\":7521:7531  returndata */\n      dup3\n        /* \"@chainlink/contracts-ccip/src/v0.8/vendor/openzeppelin-solidity/v4.8.0/utils/Address.sol\":7514:7531  return returndata */\n      swap1\n      pop\n      jump(tag_66)\n        /* \"@chainlink/contracts-ccip/src/v0.8/vendor/openzeppelin-solidity/v4.8.0/utils/Address.sol\":7230:7592  if (success) {... */\n    tag_67:\n        /* \"@chainlink/contracts-ccip/src/v0.8/vendor/openzeppelin-solidity/v4.8.0/utils/Address.sol\":7552:7585  _revert(returndata, errorMessage) */\n      tag_75\n        /* \"@chainlink/contracts-ccip/src/v0.8/vendor/openzeppelin-solidity/v4.8.0/utils/Address.sol\":7560:7570  returndata */\n      dup4\n        /* \"@chainlink/contracts-ccip/src/v0.8/vendor/openzeppelin-solidity/v4.8.0/utils/Address.sol\":7572:7584  errorMessage */\n      dup4\n        /* \"@chainlink/contracts-ccip/src/v0.8/vendor/openzeppelin-solidity/v4.8.0/utils/Address.sol\":7552:7559  _revert */\n      tag_76\n        /* \"@chainlink/contracts-ccip/src/v0.8/vendor/openzeppelin-solidity/v4.8.0/utils/Address.sol\":7552:7585  _revert(returndata, errorMessage) */\n      jump\t// in\n    tag_75:\n        /* \"@chainlink/contracts-ccip/src/v0.8/vendor/openzeppelin-solidity/v4.8.0/utils/Address.sol\":7048:7596  function verifyCallResultFromTarget(... */\n    tag_66:\n      swap5\n      swap4\n      pop\n      pop\n      pop\n      pop\n      jump\t// out\n        /* \"@chainlink/contracts-ccip/src/v0.8/vendor/openzeppelin-solidity/v4.8.0/utils/Address.sol\":1121:1423  function isContract(address account) internal view returns (bool) {... */\n    tag_70:\n        /* \"@chainlink/contracts-ccip/src/v0.8/vendor/openzeppelin-solidity/v4.8.0/utils/Address.sol\":1181:1185  bool */\n      0x00\n        /* \"@chainlink/contracts-ccip/src/v0.8/vendor/openzeppelin-solidity/v4.8.0/utils/Address.sol\":1417:1418  0 */\n      dup1\n        /* \"@chainlink/contracts-ccip/src/v0.8/vendor/openzeppelin-solidity/v4.8.0/utils/Address.sol\":1395:1402  account */\n      dup3\n        /* \"@chainlink/contracts-ccip/src/v0.8/vendor/openzeppelin-solidity/v4.8.0/utils/Address.sol\":1395:1414  account.code.length */\n      0xffffffffffffffffffffffffffffffffffffffff\n      and\n      extcodesize\n        /* \"@chainlink/contracts-ccip/src/v0.8/vendor/openzeppelin-solidity/v4.8.0/utils/Address.sol\":1395:1418  account.code.length > 0 */\n      gt\n        /* \"@chainlink/contracts-ccip/src/v0.8/vendor/openzeppelin-solidity/v4.8.0/utils/Address.sol\":1388:1418  return account.code.length > 0 */\n      swap1\n      pop\n        /* \"@chainlink/contracts-ccip/src/v0.8/vendor/openzeppelin-solidity/v4.8.0/utils/Address.sol\":1121:1423  function isContract(address account) internal view returns (bool) {... */\n      swap2\n      swap1\n      pop\n      jump\t// out\n        /* \"@chainlink/contracts-ccip/src/v0.8/vendor/openzeppelin-solidity/v4.8.0/utils/Address.sol\":8062:8538  function _revert(bytes memory returndata, string memory errorMessage) private pure {... */\n    tag_76:\n        /* \"@chainlink/contracts-ccip/src/v0.8/vendor/openzeppelin-solidity/v4.8.0/utils/Address.sol\":8233:8234  0 */\n      0x00\n        /* \"@chainlink/contracts-ccip/src/v0.8/vendor/openzeppelin-solidity/v4.8.0/utils/Address.sol\":8213:8223  returndata */\n      dup3\n        /* \"@chainlink/contracts-ccip/src/v0.8/vendor/openzeppelin-solidity/v4.8.0/utils/Address.sol\":8213:8230  returndata.length */\n      mload\n        /* \"@chainlink/contracts-ccip/src/v0.8/vendor/openzeppelin-solidity/v4.8.0/utils/Address.sol\":8213:8234  returndata.length > 0 */\n      gt\n        /* \"@chainlink/contracts-ccip/src/v0.8/vendor/openzeppelin-solidity/v4.8.0/utils/Address.sol\":8209:8534  if (returndata.length > 0) {... */\n      iszero\n      tag_79\n      jumpi\n        /* \"@chainlink/contracts-ccip/src/v0.8/vendor/openzeppelin-solidity/v4.8.0/utils/Address.sol\":8415:8425  returndata */\n      dup2\n        /* \"@chainlink/contracts-ccip/src/v0.8/vendor/openzeppelin-solidity/v4.8.0/utils/Address.sol\":8409:8426  mload(returndata) */\n      mload\n        /* \"@chainlink/contracts-ccip/src/v0.8/vendor/openzeppelin-solidity/v4.8.0/utils/Address.sol\":8463:8478  returndata_size */\n      dup1\n        /* \"@chainlink/contracts-ccip/src/v0.8/vendor/openzeppelin-solidity/v4.8.0/utils/Address.sol\":8450:8460  returndata */\n      dup4\n        /* \"@chainlink/contracts-ccip/src/v0.8/vendor/openzeppelin-solidity/v4.8.0/utils/Address.sol\":8446:8448  32 */\n      0x20\n        /* \"@chainlink/contracts-ccip/src/v0.8/vendor/openzeppelin-solidity/v4.8.0/utils/Address.sol\":8442:8461  add(32, returndata) */\n      add\n        /* \"@chainlink/contracts-ccip/src/v0.8/vendor/openzeppelin-solidity/v4.8.0/utils/Address.sol\":8435:8479  revert(add(32, returndata), returndata_size) */\n      revert\n        /* \"@chainlink/contracts-ccip/src/v0.8/vendor/openzeppelin-solidity/v4.8.0/utils/Address.sol\":8209:8534  if (returndata.length > 0) {... */\n    tag_79:\n        /* \"@chainlink/contracts-ccip/src/v0.8/vendor/openzeppelin-solidity/v4.8.0/utils/Address.sol\":8514:8526  errorMessage */\n      dup1\n        /* \"@chainlink/contracts-ccip/src/v0.8/vendor/openzeppelin-solidity/v4.8.0/utils/Address.sol\":8507:8527  revert(errorMessage) */\n      mload(0x40)\n      0x08c379a000000000000000000000000000000000000000000000000000000000\n      dup2\n      mstore\n      0x04\n      add\n      tag_81\n      swap2\n      swap1\n      tag_82\n      jump\t// in\n    tag_81:\n      mload(0x40)\n      dup1\n      swap2\n      sub\n      swap1\n      revert\n        /* \"#utility.yul\":7:133   */\n    tag_83:\n        /* \"#utility.yul\":44:51   */\n      0x00\n        /* \"#utility.yul\":84:126   */\n      0xffffffffffffffffffffffffffffffffffffffff\n        /* \"#utility.yul\":77:82   */\n      dup3\n        /* \"#utility.yul\":73:127   */\n      and\n        /* \"#utility.yul\":62:127   */\n      swap1\n      pop\n        /* \"#utility.yul\":7:133   */\n      swap2\n      swap1\n      pop\n      jump\t// out\n        /* \"#utility.yul\":139:235   */\n    tag_84:\n        /* \"#utility.yul\":176:183   */\n      0x00\n        /* \"#utility.yul\":205:229   */\n      tag_117\n        /* \"#utility.yul\":223:228   */\n      dup3\n        /* \"#utility.yul\":205:229   */\n      tag_83\n      jump\t// in\n    tag_117:\n        /* \"#utility.yul\":194:229   */\n      swap1\n      pop\n        /* \"#utility.yul\":139:235   */\n      swap2\n      swap1\n      pop\n      jump\t// out\n        /* \"#utility.yul\":241:359   */\n    tag_85:\n        /* \"#utility.yul\":328:352   */\n      tag_119\n        /* \"#utility.yul\":346:351   */\n      dup2\n        /* \"#utility.yul\":328:352   */\n      tag_84\n      jump\t// in\n    tag_119:\n        /* \"#utility.yul\":323:326   */\n      dup3\n        /* \"#utility.yul\":316:353   */\n      mstore\n        /* \"#utility.yul\":241:359   */\n      pop\n      pop\n      jump\t// out\n        /* \"#utility.yul\":365:697   */\n    tag_8:\n        /* \"#utility.yul\":486:490   */\n      0x00\n        /* \"#utility.yul\":524:526   */\n      0x40\n        /* \"#utility.yul\":513:522   */\n      dup3\n        /* \"#utility.yul\":509:527   */\n      add\n        /* \"#utility.yul\":501:527   */\n      swap1\n      pop\n        /* \"#utility.yul\":537:608   */\n      tag_121\n        /* \"#utility.yul\":605:606   */\n      0x00\n        /* \"#utility.yul\":594:603   */\n      dup4\n        /* \"#utility.yul\":590:607   */\n      add\n        /* \"#utility.yul\":581:587   */\n      dup6\n        /* \"#utility.yul\":537:608   */\n      tag_85\n      jump\t// in\n    tag_121:\n        /* \"#utility.yul\":618:690   */\n      tag_122\n        /* \"#utility.yul\":686:688   */\n      0x20\n        /* \"#utility.yul\":675:684   */\n      dup4\n        /* \"#utility.yul\":671:689   */\n      add\n        /* \"#utility.yul\":662:668   */\n      dup5\n        /* \"#utility.yul\":618:690   */\n      tag_85\n      jump\t// in\n    tag_122:\n        /* \"#utility.yul\":365:697   */\n      swap4\n      swap3\n      pop\n      pop\n      pop\n      jump\t// out\n        /* \"#utility.yul\":784:901   */\n    tag_87:\n        /* \"#utility.yul\":893:894   */\n      0x00\n        /* \"#utility.yul\":890:891   */\n      dup1\n        /* \"#utility.yul\":883:895   */\n      revert\n        /* \"#utility.yul\":1030:1152   */\n    tag_89:\n        /* \"#utility.yul\":1103:1127   */\n      tag_127\n        /* \"#utility.yul\":1121:1126   */\n      dup2\n        /* \"#utility.yul\":1103:1127   */\n      tag_84\n      jump\t// in\n    tag_127:\n        /* \"#utility.yul\":1096:1101   */\n      dup2\n        /* \"#utility.yul\":1093:1128   */\n      eq\n        /* \"#utility.yul\":1083:1146   */\n      tag_128\n      jumpi\n        /* \"#utility.yul\":1142:1143   */\n      0x00\n        /* \"#utility.yul\":1139:1140   */\n      dup1\n        /* \"#utility.yul\":1132:1144   */\n      revert\n        /* \"#utility.yul\":1083:1146   */\n    tag_128:\n        /* \"#utility.yul\":1030:1152   */\n      pop\n      jump\t// out\n        /* \"#utility.yul\":1158:1297   */\n    tag_90:\n        /* \"#utility.yul\":1204:1209   */\n      0x00\n        /* \"#utility.yul\":1242:1248   */\n      dup2\n        /* \"#utility.yul\":1229:1249   */\n      calldataload\n        /* \"#utility.yul\":1220:1249   */\n      swap1\n      pop\n        /* \"#utility.yul\":1258:1291   */\n      tag_130\n        /* \"#utility.yul\":1285:1290   */\n      dup2\n        /* \"#utility.yul\":1258:1291   */\n      tag_89\n      jump\t// in\n    tag_130:\n        /* \"#utility.yul\":1158:1297   */\n      swap3\n      swap2\n      pop\n      pop\n      jump\t// out\n        /* \"#utility.yul\":1303:1380   */\n    tag_91:\n        /* \"#utility.yul\":1340:1347   */\n      0x00\n        /* \"#utility.yul\":1369:1374   */\n      dup2\n        /* \"#utility.yul\":1358:1374   */\n      swap1\n      pop\n        /* \"#utility.yul\":1303:1380   */\n      swap2\n      swap1\n      pop\n      jump\t// out\n        /* \"#utility.yul\":1386:1508   */\n    tag_92:\n        /* \"#utility.yul\":1459:1483   */\n      tag_133\n        /* \"#utility.yul\":1477:1482   */\n      dup2\n        /* \"#utility.yul\":1459:1483   */\n      tag_91\n      jump\t// in\n    tag_133:\n        /* \"#utility.yul\":1452:1457   */\n      dup2\n        /* \"#utility.yul\":1449:1484   */\n      eq\n        /* \"#utility.yul\":1439:1502   */\n      tag_134\n      jumpi\n        /* \"#utility.yul\":1498:1499   */\n      0x00\n        /* \"#utility.yul\":1495:1496   */\n      dup1\n        /* \"#utility.yul\":1488:1500   */\n      revert\n        /* \"#utility.yul\":1439:1502   */\n    tag_134:\n        /* \"#utility.yul\":1386:1508   */\n      pop\n      jump\t// out\n        /* \"#utility.yul\":1514:1653   */\n    tag_93:\n        /* \"#utility.yul\":1560:1565   */\n      0x00\n        /* \"#utility.yul\":1598:1604   */\n      dup2\n        /* \"#utility.yul\":1585:1605   */\n      calldataload\n        /* \"#utility.yul\":1576:1605   */\n      swap1\n      pop\n        /* \"#utility.yul\":1614:1647   */\n      tag_136\n        /* \"#utility.yul\":1641:1646   */\n      dup2\n        /* \"#utility.yul\":1614:1647   */\n      tag_92\n      jump\t// in\n    tag_136:\n        /* \"#utility.yul\":1514:1653   */\n      swap3\n      swap2\n      pop\n      pop\n      jump\t// out\n        /* \"#utility.yul\":1659:2278   */\n    tag_11:\n        /* \"#utility.yul\":1736:1742   */\n      0x00\n        /* \"#utility.yul\":1744:1750   */\n      dup1\n        /* \"#utility.yul\":1752:1758   */\n      0x00\n        /* \"#utility.yul\":1801:1803   */\n      0x60\n        /* \"#utility.yul\":1789:1798   */\n      dup5\n        /* \"#utility.yul\":1780:1787   */\n      dup7\n        /* \"#utility.yul\":1776:1799   */\n      sub\n        /* \"#utility.yul\":1772:1804   */\n      slt\n        /* \"#utility.yul\":1769:1888   */\n      iszero\n      tag_138\n      jumpi\n        /* \"#utility.yul\":1807:1886   */\n      tag_139\n      tag_87\n      jump\t// in\n    tag_139:\n        /* \"#utility.yul\":1769:1888   */\n    tag_138:\n        /* \"#utility.yul\":1927:1928   */\n      0x00\n        /* \"#utility.yul\":1952:2005   */\n      tag_140\n        /* \"#utility.yul\":1997:2004   */\n      dup7\n        /* \"#utility.yul\":1988:1994   */\n      dup3\n        /* \"#utility.yul\":1977:1986   */\n      dup8\n        /* \"#utility.yul\":1973:1995   */\n      add\n        /* \"#utility.yul\":1952:2005   */\n      tag_90\n      jump\t// in\n    tag_140:\n        /* \"#utility.yul\":1942:2005   */\n      swap4\n      pop\n        /* \"#utility.yul\":1898:2015   */\n      pop\n        /* \"#utility.yul\":2054:2056   */\n      0x20\n        /* \"#utility.yul\":2080:2133   */\n      tag_141\n        /* \"#utility.yul\":2125:2132   */\n      dup7\n        /* \"#utility.yul\":2116:2122   */\n      dup3\n        /* \"#utility.yul\":2105:2114   */\n      dup8\n        /* \"#utility.yul\":2101:2123   */\n      add\n        /* \"#utility.yul\":2080:2133   */\n      tag_90\n      jump\t// in\n    tag_141:\n        /* \"#utility.yul\":2070:2133   */\n      swap3\n      pop\n        /* \"#utility.yul\":2025:2143   */\n      pop\n        /* \"#utility.yul\":2182:2184   */\n      0x40\n        /* \"#utility.yul\":2208:2261   */\n      tag_142\n        /* \"#utility.yul\":2253:2260   */\n      dup7\n        /* \"#utility.yul\":2244:2250   */\n      dup3\n        /* \"#utility.yul\":2233:2242   */\n      dup8\n        /* \"#utility.yul\":2229:2251   */\n      add\n        /* \"#utility.yul\":2208:2261   */\n      tag_93\n      jump\t// in\n    tag_142:\n        /* \"#utility.yul\":2198:2261   */\n      swap2\n      pop\n        /* \"#utility.yul\":2153:2271   */\n      pop\n        /* \"#utility.yul\":1659:2278   */\n      swap3\n      pop\n      swap3\n      pop\n      swap3\n      jump\t// out\n        /* \"#utility.yul\":2284:2402   */\n    tag_94:\n        /* \"#utility.yul\":2371:2395   */\n      tag_144\n        /* \"#utility.yul\":2389:2394   */\n      dup2\n        /* \"#utility.yul\":2371:2395   */\n      tag_91\n      jump\t// in\n    tag_144:\n        /* \"#utility.yul\":2366:2369   */\n      dup3\n        /* \"#utility.yul\":2359:2396   */\n      mstore\n        /* \"#utility.yul\":2284:2402   */\n      pop\n      pop\n      jump\t// out\n        /* \"#utility.yul\":2408:2740   */\n    tag_25:\n        /* \"#utility.yul\":2529:2533   */\n      0x00\n        /* \"#utility.yul\":2567:2569   */\n      0x40\n        /* \"#utility.yul\":2556:2565   */\n      dup3\n        /* \"#utility.yul\":2552:2570   */\n      add\n        /* \"#utility.yul\":2544:2570   */\n      swap1\n      pop\n        /* \"#utility.yul\":2580:2651   */\n      tag_146\n        /* \"#utility.yul\":2648:2649   */\n      0x00\n        /* \"#utility.yul\":2637:2646   */\n      dup4\n        /* \"#utility.yul\":2633:2650   */\n      add\n        /* \"#utility.yul\":2624:2630   */\n      dup6\n        /* \"#utility.yul\":2580:2651   */\n      tag_85\n      jump\t// in\n    tag_146:\n        /* \"#utility.yul\":2661:2733   */\n      tag_147\n        /* \"#utility.yul\":2729:2731   */\n      0x20\n        /* \"#utility.yul\":2718:2727   */\n      dup4\n        /* \"#utility.yul\":2714:2732   */\n      add\n        /* \"#utility.yul\":2705:2711   */\n      dup5\n        /* \"#utility.yul\":2661:2733   */\n      tag_94\n      jump\t// in\n    tag_147:\n        /* \"#utility.yul\":2408:2740   */\n      swap4\n      swap3\n      pop\n      pop\n      pop\n      jump\t// out\n        /* \"#utility.yul\":2746:2836   */\n    tag_95:\n        /* \"#utility.yul\":2780:2787   */\n      0x00\n        /* \"#utility.yul\":2823:2828   */\n      dup2\n        /* \"#utility.yul\":2816:2829   */\n      iszero\n        /* \"#utility.yul\":2809:2830   */\n      iszero\n        /* \"#utility.yul\":2798:2830   */\n      swap1\n      pop\n        /* \"#utility.yul\":2746:2836   */\n      swap2\n      swap1\n      pop\n      jump\t// out\n        /* \"#utility.yul\":2842:2958   */\n    tag_96:\n        /* \"#utility.yul\":2912:2933   */\n      tag_150\n        /* \"#utility.yul\":2927:2932   */\n      dup2\n        /* \"#utility.yul\":2912:2933   */\n      tag_95\n      jump\t// in\n    tag_150:\n        /* \"#utility.yul\":2905:2910   */\n      dup2\n        /* \"#utility.yul\":2902:2934   */\n      eq\n        /* \"#utility.yul\":2892:2952   */\n      tag_151\n      jumpi\n        /* \"#utility.yul\":2948:2949   */\n      0x00\n        /* \"#utility.yul\":2945:2946   */\n      dup1\n        /* \"#utility.yul\":2938:2950   */\n      revert\n        /* \"#utility.yul\":2892:2952   */\n    tag_151:\n        /* \"#utility.yul\":2842:2958   */\n      pop\n      jump\t// out\n        /* \"#utility.yul\":2964:3101   */\n    tag_97:\n        /* \"#utility.yul\":3018:3023   */\n      0x00\n        /* \"#utility.yul\":3049:3055   */\n      dup2\n        /* \"#utility.yul\":3043:3056   */\n      mload\n        /* \"#utility.yul\":3034:3056   */\n      swap1\n      pop\n        /* \"#utility.yul\":3065:3095   */\n      tag_153\n        /* \"#utility.yul\":3089:3094   */\n      dup2\n        /* \"#utility.yul\":3065:3095   */\n      tag_96\n      jump\t// in\n    tag_153:\n        /* \"#utility.yul\":2964:3101   */\n      swap3\n      swap2\n      pop\n      pop\n      jump\t// out\n        /* \"#utility.yul\":3107:3452   */\n    tag_29:\n        /* \"#utility.yul\":3174:3180   */\n      0x00\n        /* \"#utility.yul\":3223:3225   */\n      0x20\n        /* \"#utility.yul\":3211:3220   */\n      dup3\n        /* \"#utility.yul\":3202:3209   */\n      dup5\n        /* \"#utility.yul\":3198:3221   */\n      sub\n        /* \"#utility.yul\":3194:3226   */\n      slt\n        /* \"#utility.yul\":3191:3310   */\n      iszero\n      tag_155\n      jumpi\n        /* \"#utility.yul\":3229:3308   */\n      tag_156\n      tag_87\n      jump\t// in\n    tag_156:\n        /* \"#utility.yul\":3191:3310   */\n    tag_155:\n        /* \"#utility.yul\":3349:3350   */\n      0x00\n        /* \"#utility.yul\":3374:3435   */\n      tag_157\n        /* \"#utility.yul\":3427:3434   */\n      dup5\n        /* \"#utility.yul\":3418:3424   */\n      dup3\n        /* \"#utility.yul\":3407:3416   */\n      dup6\n        /* \"#utility.yul\":3403:3425   */\n      add\n        /* \"#utility.yul\":3374:3435   */\n      tag_97\n      jump\t// in\n    tag_157:\n        /* \"#utility.yul\":3364:3435   */\n      swap2\n      pop\n        /* \"#utility.yul\":3320:3445   */\n      pop\n        /* \"#utility.yul\":3107:3452   */\n      swap3\n      swap2\n      pop\n      pop\n      jump\t// out\n        /* \"#utility.yul\":3458:4011   */\n    tag_31:\n        /* \"#utility.yul\":3635:3639   */\n      0x00\n        /* \"#utility.yul\":3673:3676   */\n      0x80\n        /* \"#utility.yul\":3662:3671   */\n      dup3\n        /* \"#utility.yul\":3658:3677   */\n      add\n        /* \"#utility.yul\":3650:3677   */\n      swap1\n      pop\n        /* \"#utility.yul\":3687:3758   */\n      tag_159\n        /* \"#utility.yul\":3755:3756   */\n      0x00\n        /* \"#utility.yul\":3744:3753   */\n      dup4\n        /* \"#utility.yul\":3740:3757   */\n      add\n        /* \"#utility.yul\":3731:3737   */\n      dup8\n        /* \"#utility.yul\":3687:3758   */\n      tag_85\n      jump\t// in\n    tag_159:\n        /* \"#utility.yul\":3768:3840   */\n      tag_160\n        /* \"#utility.yul\":3836:3838   */\n      0x20\n        /* \"#utility.yul\":3825:3834   */\n      dup4\n        /* \"#utility.yul\":3821:3839   */\n      add\n        /* \"#utility.yul\":3812:3818   */\n      dup7\n        /* \"#utility.yul\":3768:3840   */\n      tag_85\n      jump\t// in\n    tag_160:\n        /* \"#utility.yul\":3850:3922   */\n      tag_161\n        /* \"#utility.yul\":3918:3920   */\n      0x40\n        /* \"#utility.yul\":3907:3916   */\n      dup4\n        /* \"#utility.yul\":3903:3921   */\n      add\n        /* \"#utility.yul\":3894:3900   */\n      dup6\n        /* \"#utility.yul\":3850:3922   */\n      tag_94\n      jump\t// in\n    tag_161:\n        /* \"#utility.yul\":3932:4004   */\n      tag_162\n        /* \"#utility.yul\":4000:4002   */\n      0x60\n        /* \"#utility.yul\":3989:3998   */\n      dup4\n        /* \"#utility.yul\":3985:4003   */\n      add\n        /* \"#utility.yul\":3976:3982   */\n      dup5\n        /* \"#utility.yul\":3932:4004   */\n      tag_85\n      jump\t// in\n    tag_162:\n        /* \"#utility.yul\":3458:4011   */\n      swap6\n      swap5\n      pop\n      pop\n      pop\n      pop\n      pop\n      jump\t// out\n        /* \"#utility.yul\":4017:4186   */\n    tag_98:\n        /* \"#utility.yul\":4101:4112   */\n      0x00\n        /* \"#utility.yul\":4135:4141   */\n      dup3\n        /* \"#utility.yul\":4130:4133   */\n      dup3\n        /* \"#utility.yul\":4123:4142   */\n      mstore\n        /* \"#utility.yul\":4175:4179   */\n      0x20\n        /* \"#utility.yul\":4170:4173   */\n      dup3\n        /* \"#utility.yul\":4166:4180   */\n      add\n        /* \"#utility.yul\":4151:4180   */\n      swap1\n      pop\n        /* \"#utility.yul\":4017:4186   */\n      swap3\n      swap2\n      pop\n      pop\n      jump\t// out\n        /* \"#utility.yul\":4192:4373   */\n    tag_99:\n        /* \"#utility.yul\":4332:4365   */\n      0x5265656e7472616e637947756172643a207265656e7472616e742063616c6c00\n        /* \"#utility.yul\":4328:4329   */\n      0x00\n        /* \"#utility.yul\":4320:4326   */\n      dup3\n        /* \"#utility.yul\":4316:4330   */\n      add\n        /* \"#utility.yul\":4309:4366   */\n      mstore\n        /* \"#utility.yul\":4192:4373   */\n      pop\n      jump\t// out\n        /* \"#utility.yul\":4379:4745   */\n    tag_100:\n        /* \"#utility.yul\":4521:4524   */\n      0x00\n        /* \"#utility.yul\":4542:4609   */\n      tag_166\n        /* \"#utility.yul\":4606:4608   */\n      0x1f\n        /* \"#utility.yul\":4601:4604   */\n      dup4\n        /* \"#utility.yul\":4542:4609   */\n      tag_98\n      jump\t// in\n    tag_166:\n        /* \"#utility.yul\":4535:4609   */\n      swap2\n      pop\n        /* \"#utility.yul\":4618:4711   */\n      tag_167\n        /* \"#utility.yul\":4707:4710   */\n      dup3\n        /* \"#utility.yul\":4618:4711   */\n      tag_99\n      jump\t// in\n    tag_167:\n        /* \"#utility.yul\":4736:4738   */\n      0x20\n        /* \"#utility.yul\":4731:4734   */\n      dup3\n        /* \"#utility.yul\":4727:4739   */\n      add\n        /* \"#utility.yul\":4720:4739   */\n      swap1\n      pop\n        /* \"#utility.yul\":4379:4745   */\n      swap2\n      swap1\n      pop\n      jump\t// out\n        /* \"#utility.yul\":4751:5170   */\n    tag_37:\n        /* \"#utility.yul\":4917:4921   */\n      0x00\n        /* \"#utility.yul\":4955:4957   */\n      0x20\n        /* \"#utility.yul\":4944:4953   */\n      dup3\n        /* \"#utility.yul\":4940:4958   */\n      add\n        /* \"#utility.yul\":4932:4958   */\n      swap1\n      pop\n        /* \"#utility.yul\":5004:5013   */\n      dup2\n        /* \"#utility.yul\":4998:5002   */\n      dup2\n        /* \"#utility.yul\":4994:5014   */\n      sub\n        /* \"#utility.yul\":4990:4991   */\n      0x00\n        /* \"#utility.yul\":4979:4988   */\n      dup4\n        /* \"#utility.yul\":4975:4992   */\n      add\n        /* \"#utility.yul\":4968:5015   */\n      mstore\n        /* \"#utility.yul\":5032:5163   */\n      tag_169\n        /* \"#utility.yul\":5158:5162   */\n      dup2\n        /* \"#utility.yul\":5032:5163   */\n      tag_100\n      jump\t// in\n    tag_169:\n        /* \"#utility.yul\":5024:5163   */\n      swap1\n      pop\n        /* \"#utility.yul\":4751:5170   */\n      swap2\n      swap1\n      pop\n      jump\t// out\n        /* \"#utility.yul\":5176:5618   */\n    tag_41:\n        /* \"#utility.yul\":5325:5329   */\n      0x00\n        /* \"#utility.yul\":5363:5365   */\n      0x60\n        /* \"#utility.yul\":5352:5361   */\n      dup3\n        /* \"#utility.yul\":5348:5366   */\n      add\n        /* \"#utility.yul\":5340:5366   */\n      swap1\n      pop\n        /* \"#utility.yul\":5376:5447   */\n      tag_171\n        /* \"#utility.yul\":5444:5445   */\n      0x00\n        /* \"#utility.yul\":5433:5442   */\n      dup4\n        /* \"#utility.yul\":5429:5446   */\n      add\n        /* \"#utility.yul\":5420:5426   */\n      dup7\n        /* \"#utility.yul\":5376:5447   */\n      tag_85\n      jump\t// in\n    tag_171:\n        /* \"#utility.yul\":5457:5529   */\n      tag_172\n        /* \"#utility.yul\":5525:5527   */\n      0x20\n        /* \"#utility.yul\":5514:5523   */\n      dup4\n        /* \"#utility.yul\":5510:5528   */\n      add\n        /* \"#utility.yul\":5501:5507   */\n      dup6\n        /* \"#utility.yul\":5457:5529   */\n      tag_85\n      jump\t// in\n    tag_172:\n        /* \"#utility.yul\":5539:5611   */\n      tag_173\n        /* \"#utility.yul\":5607:5609   */\n      0x40\n        /* \"#utility.yul\":5596:5605   */\n      dup4\n        /* \"#utility.yul\":5592:5610   */\n      add\n        /* \"#utility.yul\":5583:5589   */\n      dup5\n        /* \"#utility.yul\":5539:5611   */\n      tag_94\n      jump\t// in\n    tag_173:\n        /* \"#utility.yul\":5176:5618   */\n      swap5\n      swap4\n      pop\n      pop\n      pop\n      pop\n      jump\t// out\n        /* \"#utility.yul\":5624:5853   */\n    tag_101:\n        /* \"#utility.yul\":5764:5798   */\n      0x5361666545524332303a204552433230206f7065726174696f6e20646964206e\n        /* \"#utility.yul\":5760:5761   */\n      0x00\n        /* \"#utility.yul\":5752:5758   */\n      dup3\n        /* \"#utility.yul\":5748:5762   */\n      add\n        /* \"#utility.yul\":5741:5799   */\n      mstore\n        /* \"#utility.yul\":5833:5845   */\n      0x6f74207375636365656400000000000000000000000000000000000000000000\n        /* \"#utility.yul\":5828:5830   */\n      0x20\n        /* \"#utility.yul\":5820:5826   */\n      dup3\n        /* \"#utility.yul\":5816:5831   */\n      add\n        /* \"#utility.yul\":5809:5846   */\n      mstore\n        /* \"#utility.yul\":5624:5853   */\n      pop\n      jump\t// out\n        /* \"#utility.yul\":5859:6225   */\n    tag_102:\n        /* \"#utility.yul\":6001:6004   */\n      0x00\n        /* \"#utility.yul\":6022:6089   */\n      tag_176\n        /* \"#utility.yul\":6086:6088   */\n      0x2a\n        /* \"#utility.yul\":6081:6084   */\n      dup4\n        /* \"#utility.yul\":6022:6089   */\n      tag_98\n      jump\t// in\n    tag_176:\n        /* \"#utility.yul\":6015:6089   */\n      swap2\n      pop\n        /* \"#utility.yul\":6098:6191   */\n      tag_177\n        /* \"#utility.yul\":6187:6190   */\n      dup3\n        /* \"#utility.yul\":6098:6191   */\n      tag_101\n      jump\t// in\n    tag_177:\n        /* \"#utility.yul\":6216:6218   */\n      0x40\n        /* \"#utility.yul\":6211:6214   */\n      dup3\n        /* \"#utility.yul\":6207:6219   */\n      add\n        /* \"#utility.yul\":6200:6219   */\n      swap1\n      pop\n        /* \"#utility.yul\":5859:6225   */\n      swap2\n      swap1\n      pop\n      jump\t// out\n        /* \"#utility.yul\":6231:6650   */\n    tag_51:\n        /* \"#utility.yul\":6397:6401   */\n      0x00\n        /* \"#utility.yul\":6435:6437   */\n      0x20\n        /* \"#utility.yul\":6424:6433   */\n      dup3\n        /* \"#utility.yul\":6420:6438   */\n      add\n        /* \"#utility.yul\":6412:6438   */\n      swap1\n      pop\n        /* \"#utility.yul\":6484:6493   */\n      dup2\n        /* \"#utility.yul\":6478:6482   */\n      dup2\n        /* \"#utility.yul\":6474:6494   */\n      sub\n        /* \"#utility.yul\":6470:6471   */\n      0x00\n        /* \"#utility.yul\":6459:6468   */\n      dup4\n        /* \"#utility.yul\":6455:6472   */\n      add\n        /* \"#utility.yul\":6448:6495   */\n      mstore\n        /* \"#utility.yul\":6512:6643   */\n      tag_179\n        /* \"#utility.yul\":6638:6642   */\n      dup2\n        /* \"#utility.yul\":6512:6643   */\n      tag_102\n      jump\t// in\n    tag_179:\n        /* \"#utility.yul\":6504:6643   */\n      swap1\n      pop\n        /* \"#utility.yul\":6231:6650   */\n      swap2\n      swap1\n      pop\n      jump\t// out\n        /* \"#utility.yul\":6656:6881   */\n    tag_103:\n        /* \"#utility.yul\":6796:6830   */\n      0x416464726573733a20696e73756666696369656e742062616c616e636520666f\n        /* \"#utility.yul\":6792:6793   */\n      0x00\n        /* \"#utility.yul\":6784:6790   */\n      dup3\n        /* \"#utility.yul\":6780:6794   */\n      add\n        /* \"#utility.yul\":6773:6831   */\n      mstore\n        /* \"#utility.yul\":6865:6873   */\n      0x722063616c6c0000000000000000000000000000000000000000000000000000\n        /* \"#utility.yul\":6860:6862   */\n      0x20\n        /* \"#utility.yul\":6852:6858   */\n      dup3\n        /* \"#utility.yul\":6848:6863   */\n      add\n        /* \"#utility.yul\":6841:6874   */\n      mstore\n        /* \"#utility.yul\":6656:6881   */\n      pop\n      jump\t// out\n        /* \"#utility.yul\":6887:7253   */\n    tag_104:\n        /* \"#utility.yul\":7029:7032   */\n      0x00\n        /* \"#utility.yul\":7050:7117   */\n      tag_182\n        /* \"#utility.yul\":7114:7116   */\n      0x26\n        /* \"#utility.yul\":7109:7112   */\n      dup4\n        /* \"#utility.yul\":7050:7117   */\n      tag_98\n      jump\t// in\n    tag_182:\n        /* \"#utility.yul\":7043:7117   */\n      swap2\n      pop\n        /* \"#utility.yul\":7126:7219   */\n      tag_183\n        /* \"#utility.yul\":7215:7218   */\n      dup3\n        /* \"#utility.yul\":7126:7219   */\n      tag_103\n      jump\t// in\n    tag_183:\n        /* \"#utility.yul\":7244:7246   */\n      0x40\n        /* \"#utility.yul\":7239:7242   */\n      dup3\n        /* \"#utility.yul\":7235:7247   */\n      add\n        /* \"#utility.yul\":7228:7247   */\n      swap1\n      pop\n        /* \"#utility.yul\":6887:7253   */\n      swap2\n      swap1\n      pop\n      jump\t// out\n        /* \"#utility.yul\":7259:7678   */\n    tag_58:\n        /* \"#utility.yul\":7425:7429   */\n      0x00\n        /* \"#utility.yul\":7463:7465   */\n      0x20\n        /* \"#utility.yul\":7452:7461   */\n      dup3\n        /* \"#utility.yul\":7448:7466   */\n      add\n        /* \"#utility.yul\":7440:7466   */\n      swap1\n      pop\n        /* \"#utility.yul\":7512:7521   */\n      dup2\n        /* \"#utility.yul\":7506:7510   */\n      dup2\n        /* \"#utility.yul\":7502:7522   */\n      sub\n        /* \"#utility.yul\":7498:7499   */\n      0x00\n        /* \"#utility.yul\":7487:7496   */\n      dup4\n        /* \"#utility.yul\":7483:7500   */\n      add\n        /* \"#utility.yul\":7476:7523   */\n      mstore\n        /* \"#utility.yul\":7540:7671   */\n      tag_185\n        /* \"#utility.yul\":7666:7670   */\n      dup2\n        /* \"#utility.yul\":7540:7671   */\n      tag_104\n      jump\t// in\n    tag_185:\n        /* \"#utility.yul\":7532:7671   */\n      swap1\n      pop\n        /* \"#utility.yul\":7259:7678   */\n      swap2\n      swap1\n      pop\n      jump\t// out\n        /* \"#utility.yul\":7684:7782   */\n    tag_105:\n        /* \"#utility.yul\":7735:7741   */\n      0x00\n        /* \"#utility.yul\":7769:7774   */\n      dup2\n        /* \"#utility.yul\":7763:7775   */\n      mload\n        /* \"#utility.yul\":7753:7775   */\n      swap1\n      pop\n        /* \"#utility.yul\":7684:7782   */\n      swap2\n      swap1\n      pop\n      jump\t// out\n        /* \"#utility.yul\":7788:7935   */\n    tag_106:\n        /* \"#utility.yul\":7889:7900   */\n      0x00\n        /* \"#utility.yul\":7926:7929   */\n      dup2\n        /* \"#utility.yul\":7911:7929   */\n      swap1\n      pop\n        /* \"#utility.yul\":7788:7935   */\n      swap3\n      swap2\n      pop\n      pop\n      jump\t// out\n        /* \"#utility.yul\":7941:8080   */\n    tag_107:\n        /* \"#utility.yul\":8030:8036   */\n      dup3\n        /* \"#utility.yul\":8025:8028   */\n      dup2\n        /* \"#utility.yul\":8020:8023   */\n      dup4\n        /* \"#utility.yul\":8014:8037   */\n      mcopy\n        /* \"#utility.yul\":8071:8072   */\n      0x00\n        /* \"#utility.yul\":8062:8068   */\n      dup4\n        /* \"#utility.yul\":8057:8060   */\n      dup4\n        /* \"#utility.yul\":8053:8069   */\n      add\n        /* \"#utility.yul\":8046:8073   */\n      mstore\n        /* \"#utility.yul\":7941:8080   */\n      pop\n      pop\n      pop\n      jump\t// out\n        /* \"#utility.yul\":8086:8472   */\n    tag_108:\n        /* \"#utility.yul\":8190:8193   */\n      0x00\n        /* \"#utility.yul\":8218:8256   */\n      tag_190\n        /* \"#utility.yul\":8250:8255   */\n      dup3\n        /* \"#utility.yul\":8218:8256   */\n      tag_105\n      jump\t// in\n    tag_190:\n        /* \"#utility.yul\":8272:8360   */\n      tag_191\n        /* \"#utility.yul\":8353:8359   */\n      dup2\n        /* \"#utility.yul\":8348:8351   */\n      dup6\n        /* \"#utility.yul\":8272:8360   */\n      tag_106\n      jump\t// in\n    tag_191:\n        /* \"#utility.yul\":8265:8360   */\n      swap4\n      pop\n        /* \"#utility.yul\":8369:8434   */\n      tag_192\n        /* \"#utility.yul\":8427:8433   */\n      dup2\n        /* \"#utility.yul\":8422:8425   */\n      dup6\n        /* \"#utility.yul\":8415:8419   */\n      0x20\n        /* \"#utility.yul\":8408:8413   */\n      dup7\n        /* \"#utility.yul\":8404:8420   */\n      add\n        /* \"#utility.yul\":8369:8434   */\n      tag_107\n      jump\t// in\n    tag_192:\n        /* \"#utility.yul\":8459:8465   */\n      dup1\n        /* \"#utility.yul\":8454:8457   */\n      dup5\n        /* \"#utility.yul\":8450:8466   */\n      add\n        /* \"#utility.yul\":8443:8466   */\n      swap2\n      pop\n        /* \"#utility.yul\":8194:8472   */\n      pop\n        /* \"#utility.yul\":8086:8472   */\n      swap3\n      swap2\n      pop\n      pop\n      jump\t// out\n        /* \"#utility.yul\":8478:8749   */\n    tag_60:\n        /* \"#utility.yul\":8608:8611   */\n      0x00\n        /* \"#utility.yul\":8630:8723   */\n      tag_194\n        /* \"#utility.yul\":8719:8722   */\n      dup3\n        /* \"#utility.yul\":8710:8716   */\n      dup5\n        /* \"#utility.yul\":8630:8723   */\n      tag_108\n      jump\t// in\n    tag_194:\n        /* \"#utility.yul\":8623:8723   */\n      swap2\n      pop\n        /* \"#utility.yul\":8740:8743   */\n      dup2\n        /* \"#utility.yul\":8733:8743   */\n      swap1\n      pop\n        /* \"#utility.yul\":8478:8749   */\n      swap3\n      swap2\n      pop\n      pop\n      jump\t// out\n        /* \"#utility.yul\":8755:8934   */\n    tag_109:\n        /* \"#utility.yul\":8895:8926   */\n      0x416464726573733a2063616c6c20746f206e6f6e2d636f6e7472616374000000\n        /* \"#utility.yul\":8891:8892   */\n      0x00\n        /* \"#utility.yul\":8883:8889   */\n      dup3\n        /* \"#utility.yul\":8879:8893   */\n      add\n        /* \"#utility.yul\":8872:8927   */\n      mstore\n        /* \"#utility.yul\":8755:8934   */\n      pop\n      jump\t// out\n        /* \"#utility.yul\":8940:9306   */\n    tag_110:\n        /* \"#utility.yul\":9082:9085   */\n      0x00\n        /* \"#utility.yul\":9103:9170   */\n      tag_197\n        /* \"#utility.yul\":9167:9169   */\n      0x1d\n        /* \"#utility.yul\":9162:9165   */\n      dup4\n        /* \"#utility.yul\":9103:9170   */\n      tag_98\n      jump\t// in\n    tag_197:\n        /* \"#utility.yul\":9096:9170   */\n      swap2\n      pop\n        /* \"#utility.yul\":9179:9272   */\n      tag_198\n        /* \"#utility.yul\":9268:9271   */\n      dup3\n        /* \"#utility.yul\":9179:9272   */\n      tag_109\n      jump\t// in\n    tag_198:\n        /* \"#utility.yul\":9297:9299   */\n      0x20\n        /* \"#utility.yul\":9292:9295   */\n      dup3\n        /* \"#utility.yul\":9288:9300   */\n      add\n        /* \"#utility.yul\":9281:9300   */\n      swap1\n      pop\n        /* \"#utility.yul\":8940:9306   */\n      swap2\n      swap1\n      pop\n      jump\t// out\n        /* \"#utility.yul\":9312:9731   */\n    tag_73:\n        /* \"#utility.yul\":9478:9482   */\n      0x00\n        /* \"#utility.yul\":9516:9518   */\n      0x20\n        /* \"#utility.yul\":9505:9514   */\n      dup3\n        /* \"#utility.yul\":9501:9519   */\n      add\n        /* \"#utility.yul\":9493:9519   */\n      swap1\n      pop\n        /* \"#utility.yul\":9565:9574   */\n      dup2\n        /* \"#utility.yul\":9559:9563   */\n      dup2\n        /* \"#utility.yul\":9555:9575   */\n      sub\n        /* \"#utility.yul\":9551:9552   */\n      0x00\n        /* \"#utility.yul\":9540:9549   */\n      dup4\n        /* \"#utility.yul\":9536:9553   */\n      add\n        /* \"#utility.yul\":9529:9576   */\n      mstore\n        /* \"#utility.yul\":9593:9724   */\n      tag_200\n        /* \"#utility.yul\":9719:9723   */\n      dup2\n        /* \"#utility.yul\":9593:9724   */\n      tag_110\n      jump\t// in\n    tag_200:\n        /* \"#utility.yul\":9585:9724   */\n      swap1\n      pop\n        /* \"#utility.yul\":9312:9731   */\n      swap2\n      swap1\n      pop\n      jump\t// out\n        /* \"#utility.yul\":9737:9836   */\n    tag_111:\n        /* \"#utility.yul\":9789:9795   */\n      0x00\n        /* \"#utility.yul\":9823:9828   */\n      dup2\n        /* \"#utility.yul\":9817:9829   */\n      mload\n        /* \"#utility.yul\":9807:9829   */\n      swap1\n      pop\n        /* \"#utility.yul\":9737:9836   */\n      swap2\n      swap1\n      pop\n      jump\t// out\n        /* \"#utility.yul\":9842:9944   */\n    tag_112:\n        /* \"#utility.yul\":9883:9889   */\n      0x00\n        /* \"#utility.yul\":9934:9936   */\n      0x1f\n        /* \"#utility.yul\":9930:9937   */\n      not\n        /* \"#utility.yul\":9925:9927   */\n      0x1f\n        /* \"#utility.yul\":9918:9923   */\n      dup4\n        /* \"#utility.yul\":9914:9928   */\n      add\n        /* \"#utility.yul\":9910:9938   */\n      and\n        /* \"#utility.yul\":9900:9938   */\n      swap1\n      pop\n        /* \"#utility.yul\":9842:9944   */\n      swap2\n      swap1\n      pop\n      jump\t// out\n        /* \"#utility.yul\":9950:10327   */\n    tag_113:\n        /* \"#utility.yul\":10038:10041   */\n      0x00\n        /* \"#utility.yul\":10066:10105   */\n      tag_204\n        /* \"#utility.yul\":10099:10104   */\n      dup3\n        /* \"#utility.yul\":10066:10105   */\n      tag_111\n      jump\t// in\n    tag_204:\n        /* \"#utility.yul\":10121:10192   */\n      tag_205\n        /* \"#utility.yul\":10185:10191   */\n      dup2\n        /* \"#utility.yul\":10180:10183   */\n      dup6\n        /* \"#utility.yul\":10121:10192   */\n      tag_98\n      jump\t// in\n    tag_205:\n        /* \"#utility.yul\":10114:10192   */\n      swap4\n      pop\n        /* \"#utility.yul\":10201:10266   */\n      tag_206\n        /* \"#utility.yul\":10259:10265   */\n      dup2\n        /* \"#utility.yul\":10254:10257   */\n      dup6\n        /* \"#utility.yul\":10247:10251   */\n      0x20\n        /* \"#utility.yul\":10240:10245   */\n      dup7\n        /* \"#utility.yul\":10236:10252   */\n      add\n        /* \"#utility.yul\":10201:10266   */\n      tag_107\n      jump\t// in\n    tag_206:\n        /* \"#utility.yul\":10291:10320   */\n      tag_207\n        /* \"#utility.yul\":10313:10319   */\n      dup2\n        /* \"#utility.yul\":10291:10320   */\n      tag_112\n      jump\t// in\n    tag_207:\n        /* \"#utility.yul\":10286:10289   */\n      dup5\n        /* \"#utility.yul\":10282:10321   */\n      add\n        /* \"#utility.yul\":10275:10321   */\n      swap2\n      pop\n        /* \"#utility.yul\":10042:10327   */\n      pop\n        /* \"#utility.yul\":9950:10327   */\n      swap3\n      swap2\n      pop\n      pop\n      jump\t// out\n        /* \"#utility.yul\":10333:10646   */\n    tag_82:\n        /* \"#utility.yul\":10446:10450   */\n      0x00\n        /* \"#utility.yul\":10484:10486   */\n      0x20\n        /* \"#utility.yul\":10473:10482   */\n      dup3\n        /* \"#utility.yul\":10469:10487   */\n      add\n        /* \"#utility.yul\":10461:10487   */\n      swap1\n      pop\n        /* \"#utility.yul\":10533:10542   */\n      dup2\n        /* \"#utility.yul\":10527:10531   */\n      dup2\n        /* \"#utility.yul\":10523:10543   */\n      sub\n        /* \"#utility.yul\":10519:10520   */\n      0x00\n        /* \"#utility.yul\":10508:10517   */\n      dup4\n        /* \"#utility.yul\":10504:10521   */\n      add\n        /* \"#utility.yul\":10497:10544   */\n      mstore\n        /* \"#utility.yul\":10561:10639   */\n      tag_209\n        /* \"#utility.yul\":10634:10638   */\n      dup2\n        /* \"#utility.yul\":10625:10631   */\n      dup5\n        /* \"#utility.yul\":10561:10639   */\n      tag_113\n      jump\t// in\n    tag_209:\n        /* \"#utility.yul\":10553:10639   */\n      swap1\n      pop\n        /* \"#utility.yul\":10333:10646   */\n      swap3\n      swap2\n      pop\n      pop\n      jump\t// out\n\n    auxdata: 0xa2646970667358221220509a324825add73715fb8577757e07feb31844b3ae678bb5a61417aa752231db64736f6c634300081a0033\n}\n",
				"bytecode": {
					"linkReferences": {},
					"object": "60c060405234801561000f575f80fd5b50604051610dcc380380610dcc8339818101604052810190610031919061016c565b60015f819055508273ffffffffffffffffffffffffffffffffffffffff1660808173ffffffffffffffffffffffffffffffffffffffff16815250508173ffffffffffffffffffffffffffffffffffffffff1660a08173ffffffffffffffffffffffffffffffffffffffff16815250508073ffffffffffffffffffffffffffffffffffffffff166367a5cd06836040518263ffffffff1660e01b81526004016100d991906101cb565b5f604051808303815f87803b1580156100f0575f80fd5b505af1158015610102573d5f803e3d5ffd5b505050505050506101e4565b5f80fd5b5f73ffffffffffffffffffffffffffffffffffffffff82169050919050565b5f61013b82610112565b9050919050565b61014b81610131565b8114610155575f80fd5b50565b5f8151905061016681610142565b92915050565b5f805f606084860312156101835761018261010e565b5b5f61019086828701610158565b93505060206101a186828701610158565b92505060406101b286828701610158565b9150509250925092565b6101c581610131565b82525050565b5f6020820190506101de5f8301846101bc565b92915050565b60805160a051610bae61021e5f395f818160980152818161011e01526101cb01525f818160770152818160c901526101760152610bae5ff3fe608060405234801561000f575f80fd5b5060043610610034575f3560e01c8063d3c7c2c714610038578063df791e5014610057575b5f80fd5b610040610073565b60405161004e9291906106bc565b60405180910390f35b610071600480360381019061006c9190610744565b6100bf565b005b5f807f00000000000000000000000000000000000000000000000000000000000000007f0000000000000000000000000000000000000000000000000000000000000000915091509091565b6100c7610314565b7f000000000000000000000000000000000000000000000000000000000000000073ffffffffffffffffffffffffffffffffffffffff168373ffffffffffffffffffffffffffffffffffffffff16148061016c57507f000000000000000000000000000000000000000000000000000000000000000073ffffffffffffffffffffffffffffffffffffffff168373ffffffffffffffffffffffffffffffffffffffff16145b610174575f80fd5b7f000000000000000000000000000000000000000000000000000000000000000073ffffffffffffffffffffffffffffffffffffffff168273ffffffffffffffffffffffffffffffffffffffff16148061021957507f000000000000000000000000000000000000000000000000000000000000000073ffffffffffffffffffffffffffffffffffffffff168273ffffffffffffffffffffffffffffffffffffffff16145b610221575f80fd5b61024e3330838673ffffffffffffffffffffffffffffffffffffffff16610361909392919063ffffffff16565b8173ffffffffffffffffffffffffffffffffffffffff1663a9059cbb33836040518363ffffffff1660e01b81526004016102899291906107a3565b6020604051808303815f875af11580156102a5573d5f803e3d5ffd5b505050506040513d601f19601f820116820180604052508101906102c991906107ff565b507fb3822e221d737fbfd984649052a302a883d38a40f7ae591e3bcb5069eedc2a59838383336040516102ff949392919061082a565b60405180910390a161030f6103ea565b505050565b60025f5403610358576040517f08c379a000000000000000000000000000000000000000000000000000000000815260040161034f906108c7565b60405180910390fd5b60025f81905550565b6103e4846323b872dd60e01b858585604051602401610382939291906108e5565b604051602081830303815290604052907bffffffffffffffffffffffffffffffffffffffffffffffffffffffff19166020820180517bffffffffffffffffffffffffffffffffffffffffffffffffffffffff83818316178352505050506103f3565b50505050565b60015f81905550565b5f610454826040518060400160405280602081526020017f5361666545524332303a206c6f772d6c6576656c2063616c6c206661696c65648152508573ffffffffffffffffffffffffffffffffffffffff166104b89092919063ffffffff16565b90505f815111156104b3578080602001905181019061047391906107ff565b6104b2576040517f08c379a00000000000000000000000000000000000000000000000000000000081526004016104a99061098a565b60405180910390fd5b5b505050565b60606104c684845f856104cf565b90509392505050565b606082471015610514576040517f08c379a000000000000000000000000000000000000000000000000000000000815260040161050b90610a18565b60405180910390fd5b5f808673ffffffffffffffffffffffffffffffffffffffff16858760405161053c9190610a88565b5f6040518083038185875af1925050503d805f8114610576576040519150601f19603f3d011682016040523d82523d5f602084013e61057b565b606091505b509150915061058c87838387610598565b92505050949350505050565b606083156105f9575f8351036105f1576105b18561060c565b6105f0576040517f08c379a00000000000000000000000000000000000000000000000000000000081526004016105e790610ae8565b60405180910390fd5b5b829050610604565b610603838361062e565b5b949350505050565b5f808273ffffffffffffffffffffffffffffffffffffffff163b119050919050565b5f825111156106405781518083602001fd5b806040517f08c379a00000000000000000000000000000000000000000000000000000000081526004016106749190610b58565b60405180910390fd5b5f73ffffffffffffffffffffffffffffffffffffffff82169050919050565b5f6106a68261067d565b9050919050565b6106b68161069c565b82525050565b5f6040820190506106cf5f8301856106ad565b6106dc60208301846106ad565b9392505050565b5f80fd5b6106f08161069c565b81146106fa575f80fd5b50565b5f8135905061070b816106e7565b92915050565b5f819050919050565b61072381610711565b811461072d575f80fd5b50565b5f8135905061073e8161071a565b92915050565b5f805f6060848603121561075b5761075a6106e3565b5b5f610768868287016106fd565b9350506020610779868287016106fd565b925050604061078a86828701610730565b9150509250925092565b61079d81610711565b82525050565b5f6040820190506107b65f8301856106ad565b6107c36020830184610794565b9392505050565b5f8115159050919050565b6107de816107ca565b81146107e8575f80fd5b50565b5f815190506107f9816107d5565b92915050565b5f60208284031215610814576108136106e3565b5b5f610821848285016107eb565b91505092915050565b5f60808201905061083d5f8301876106ad565b61084a60208301866106ad565b6108576040830185610794565b61086460608301846106ad565b95945050505050565b5f82825260208201905092915050565b7f5265656e7472616e637947756172643a207265656e7472616e742063616c6c005f82015250565b5f6108b1601f8361086d565b91506108bc8261087d565b602082019050919050565b5f6020820190508181035f8301526108de816108a5565b9050919050565b5f6060820190506108f85f8301866106ad565b61090560208301856106ad565b6109126040830184610794565b949350505050565b7f5361666545524332303a204552433230206f7065726174696f6e20646964206e5f8201527f6f74207375636365656400000000000000000000000000000000000000000000602082015250565b5f610974602a8361086d565b915061097f8261091a565b604082019050919050565b5f6020820190508181035f8301526109a181610968565b9050919050565b7f416464726573733a20696e73756666696369656e742062616c616e636520666f5f8201527f722063616c6c0000000000000000000000000000000000000000000000000000602082015250565b5f610a0260268361086d565b9150610a0d826109a8565b604082019050919050565b5f6020820190508181035f830152610a2f816109f6565b9050919050565b5f81519050919050565b5f81905092915050565b8281835e5f83830152505050565b5f610a6282610a36565b610a6c8185610a40565b9350610a7c818560208601610a4a565b80840191505092915050565b5f610a938284610a58565b915081905092915050565b7f416464726573733a2063616c6c20746f206e6f6e2d636f6e74726163740000005f82015250565b5f610ad2601d8361086d565b9150610add82610a9e565b602082019050919050565b5f6020820190508181035f830152610aff81610ac6565b9050919050565b5f81519050919050565b5f601f19601f8301169050919050565b5f610b2a82610b06565b610b34818561086d565b9350610b44818560208601610a4a565b610b4d81610b10565b840191505092915050565b5f6020820190508181035f830152610b708184610b20565b90509291505056fea2646970667358221220509a324825add73715fb8577757e07feb31844b3ae678bb5a61417aa752231db64736f6c634300081a0033",
					"opcodes": "PUSH1 0xC0 PUSH1 0x40 MSTORE CALLVALUE DUP1 ISZERO PUSH2 0xF JUMPI PUSH0 DUP1 REVERT JUMPDEST POP PUSH1 0x40 MLOAD PUSH2 0xDCC CODESIZE SUB DUP1 PUSH2 0xDCC DUP4 CODECOPY DUP2 DUP2 ADD PUSH1 0x40 MSTORE DUP2 ADD SWAP1 PUSH2 0x31 SWAP2 SWAP1 PUSH2 0x16C JUMP JUMPDEST PUSH1 0x1 PUSH0 DUP2 SWAP1 SSTORE POP DUP3 PUSH20 0xFFFFFFFFFFFFFFFFFFFFFFFFFFFFFFFFFFFFFFFF AND PUSH1 0x80 DUP2 PUSH20 0xFFFFFFFFFFFFFFFFFFFFFFFFFFFFFFFFFFFFFFFF AND DUP2 MSTORE POP POP DUP2 PUSH20 0xFFFFFFFFFFFFFFFFFFFFFFFFFFFFFFFFFFFFFFFF AND PUSH1 0xA0 DUP2 PUSH20 0xFFFFFFFFFFFFFFFFFFFFFFFFFFFFFFFFFFFFFFFF AND DUP2 MSTORE POP POP DUP1 PUSH20 0xFFFFFFFFFFFFFFFFFFFFFFFFFFFFFFFFFFFFFFFF AND PUSH4 0x67A5CD06 DUP4 PUSH1 0x40 MLOAD DUP3 PUSH4 0xFFFFFFFF AND PUSH1 0xE0 SHL DUP2 MSTORE PUSH1 0x4 ADD PUSH2 0xD9 SWAP2 SWAP1 PUSH2 0x1CB JUMP JUMPDEST PUSH0 PUSH1 0x40 MLOAD DUP1 DUP4 SUB DUP2 PUSH0 DUP8 DUP1 EXTCODESIZE ISZERO DUP1 ISZERO PUSH2 0xF0 JUMPI PUSH0 DUP1 REVERT JUMPDEST POP GAS CALL ISZERO DUP1 ISZERO PUSH2 0x102 JUMPI RETURNDATASIZE PUSH0 DUP1 RETURNDATACOPY RETURNDATASIZE PUSH0 REVERT JUMPDEST POP POP POP POP POP POP POP PUSH2 0x1E4 JUMP JUMPDEST PUSH0 DUP1 REVERT JUMPDEST PUSH0 PUSH20 0xFFFFFFFFFFFFFFFFFFFFFFFFFFFFFFFFFFFFFFFF DUP3 AND SWAP1 POP SWAP2 SWAP1 POP JUMP JUMPDEST PUSH0 PUSH2 0x13B DUP3 PUSH2 0x112 JUMP JUMPDEST SWAP1 POP SWAP2 SWAP1 POP JUMP JUMPDEST PUSH2 0x14B DUP2 PUSH2 0x131 JUMP JUMPDEST DUP2 EQ PUSH2 0x155 JUMPI PUSH0 DUP1 REVERT JUMPDEST POP JUMP JUMPDEST PUSH0 DUP2 MLOAD SWAP1 POP PUSH2 0x166 DUP2 PUSH2 0x142 JUMP JUMPDEST SWAP3 SWAP2 POP POP JUMP JUMPDEST PUSH0 DUP1 PUSH0 PUSH1 0x60 DUP5 DUP7 SUB SLT ISZERO PUSH2 0x183 JUMPI PUSH2 0x182 PUSH2 0x10E JUMP JUMPDEST JUMPDEST PUSH0 PUSH2 0x190 DUP7 DUP3 DUP8 ADD PUSH2 0x158 JUMP JUMPDEST SWAP4 POP POP PUSH1 0x20 PUSH2 0x1A1 DUP7 DUP3 DUP8 ADD PUSH2 0x158 JUMP JUMPDEST SWAP3 POP POP PUSH1 0x40 PUSH2 0x1B2 DUP7 DUP3 DUP8 ADD PUSH2 0x158 JUMP JUMPDEST SWAP2 POP POP SWAP3 POP SWAP3 POP SWAP3 JUMP JUMPDEST PUSH2 0x1C5 DUP2 PUSH2 0x131 JUMP JUMPDEST DUP3 MSTORE POP POP JUMP JUMPDEST PUSH0 PUSH1 0x20 DUP3 ADD SWAP1 POP PUSH2 0x1DE PUSH0 DUP4 ADD DUP5 PUSH2 0x1BC JUMP JUMPDEST SWAP3 SWAP2 POP POP JUMP JUMPDEST PUSH1 0x80 MLOAD PUSH1 0xA0 MLOAD PUSH2 0xBAE PUSH2 0x21E PUSH0 CODECOPY PUSH0 DUP2 DUP2 PUSH1 0x98 ADD MSTORE DUP2 DUP2 PUSH2 0x11E ADD MSTORE PUSH2 0x1CB ADD MSTORE PUSH0 DUP2 DUP2 PUSH1 0x77 ADD MSTORE DUP2 DUP2 PUSH1 0xC9 ADD MSTORE PUSH2 0x176 ADD MSTORE PUSH2 0xBAE PUSH0 RETURN INVALID PUSH1 0x80 PUSH1 0x40 MSTORE CALLVALUE DUP1 ISZERO PUSH2 0xF JUMPI PUSH0 DUP1 REVERT JUMPDEST POP PUSH1 0x4 CALLDATASIZE LT PUSH2 0x34 JUMPI PUSH0 CALLDATALOAD PUSH1 0xE0 SHR DUP1 PUSH4 0xD3C7C2C7 EQ PUSH2 0x38 JUMPI DUP1 PUSH4 0xDF791E50 EQ PUSH2 0x57 JUMPI JUMPDEST PUSH0 DUP1 REVERT JUMPDEST PUSH2 0x40 PUSH2 0x73 JUMP JUMPDEST PUSH1 0x40 MLOAD PUSH2 0x4E SWAP3 SWAP2 SWAP1 PUSH2 0x6BC JUMP JUMPDEST PUSH1 0x40 MLOAD DUP1 SWAP2 SUB SWAP1 RETURN JUMPDEST PUSH2 0x71 PUSH1 0x4 DUP1 CALLDATASIZE SUB DUP2 ADD SWAP1 PUSH2 0x6C SWAP2 SWAP1 PUSH2 0x744 JUMP JUMPDEST PUSH2 0xBF JUMP JUMPDEST STOP JUMPDEST PUSH0 DUP1 PUSH32 0x0 PUSH32 0x0 SWAP2 POP SWAP2 POP SWAP1 SWAP2 JUMP JUMPDEST PUSH2 0xC7 PUSH2 0x314 JUMP JUMPDEST PUSH32 0x0 PUSH20 0xFFFFFFFFFFFFFFFFFFFFFFFFFFFFFFFFFFFFFFFF AND DUP4 PUSH20 0xFFFFFFFFFFFFFFFFFFFFFFFFFFFFFFFFFFFFFFFF AND EQ DUP1 PUSH2 0x16C JUMPI POP PUSH32 0x0 PUSH20 0xFFFFFFFFFFFFFFFFFFFFFFFFFFFFFFFFFFFFFFFF AND DUP4 PUSH20 0xFFFFFFFFFFFFFFFFFFFFFFFFFFFFFFFFFFFFFFFF AND EQ JUMPDEST PUSH2 0x174 JUMPI PUSH0 DUP1 REVERT JUMPDEST PUSH32 0x0 PUSH20 0xFFFFFFFFFFFFFFFFFFFFFFFFFFFFFFFFFFFFFFFF AND DUP3 PUSH20 0xFFFFFFFFFFFFFFFFFFFFFFFFFFFFFFFFFFFFFFFF AND EQ DUP1 PUSH2 0x219 JUMPI POP PUSH32 0x0 PUSH20 0xFFFFFFFFFFFFFFFFFFFFFFFFFFFFFFFFFFFFFFFF AND DUP3 PUSH20 0xFFFFFFFFFFFFFFFFFFFFFFFFFFFFFFFFFFFFFFFF AND EQ JUMPDEST PUSH2 0x221 JUMPI PUSH0 DUP1 REVERT JUMPDEST PUSH2 0x24E CALLER ADDRESS DUP4 DUP7 PUSH20 0xFFFFFFFFFFFFFFFFFFFFFFFFFFFFFFFFFFFFFFFF AND PUSH2 0x361 SWAP1 SWAP4 SWAP3 SWAP2 SWAP1 PUSH4 0xFFFFFFFF AND JUMP JUMPDEST DUP2 PUSH20 0xFFFFFFFFFFFFFFFFFFFFFFFFFFFFFFFFFFFFFFFF AND PUSH4 0xA9059CBB CALLER DUP4 PUSH1 0x40 MLOAD DUP4 PUSH4 0xFFFFFFFF AND PUSH1 0xE0 SHL DUP2 MSTORE PUSH1 0x4 ADD PUSH2 0x289 SWAP3 SWAP2 SWAP1 PUSH2 0x7A3 JUMP JUMPDEST PUSH1 0x20 PUSH1 0x40 MLOAD DUP1 DUP4 SUB DUP2 PUSH0 DUP8 GAS CALL ISZERO DUP1 ISZERO PUSH2 0x2A5 JUMPI RETURNDATASIZE PUSH0 DUP1 RETURNDATACOPY RETURNDATASIZE PUSH0 REVERT JUMPDEST POP POP POP POP PUSH1 0x40 MLOAD RETURNDATASIZE PUSH1 0x1F NOT PUSH1 0x1F DUP3 ADD AND DUP3 ADD DUP1 PUSH1 0x40 MSTORE POP DUP2 ADD SWAP1 PUSH2 0x2C9 SWAP2 SWAP1 PUSH2 0x7FF JUMP JUMPDEST POP PUSH32 0xB3822E221D737FBFD984649052A302A883D38A40F7AE591E3BCB5069EEDC2A59 DUP4 DUP4 DUP4 CALLER PUSH1 0x40 MLOAD PUSH2 0x2FF SWAP5 SWAP4 SWAP3 SWAP2 SWAP1 PUSH2 0x82A JUMP JUMPDEST PUSH1 0x40 MLOAD DUP1 SWAP2 SUB SWAP1 LOG1 PUSH2 0x30F PUSH2 0x3EA JUMP JUMPDEST POP POP POP JUMP JUMPDEST PUSH1 0x2 PUSH0 SLOAD SUB PUSH2 0x358 JUMPI PUSH1 0x40 MLOAD PUSH32 0x8C379A000000000000000000000000000000000000000000000000000000000 DUP2 MSTORE PUSH1 0x4 ADD PUSH2 0x34F SWAP1 PUSH2 0x8C7 JUMP JUMPDEST PUSH1 0x40 MLOAD DUP1 SWAP2 SUB SWAP1 REVERT JUMPDEST PUSH1 0x2 PUSH0 DUP2 SWAP1 SSTORE POP JUMP JUMPDEST PUSH2 0x3E4 DUP5 PUSH4 0x23B872DD PUSH1 0xE0 SHL DUP6 DUP6 DUP6 PUSH1 0x40 MLOAD PUSH1 0x24 ADD PUSH2 0x382 SWAP4 SWAP3 SWAP2 SWAP1 PUSH2 0x8E5 JUMP JUMPDEST PUSH1 0x40 MLOAD PUSH1 0x20 DUP2 DUP4 SUB SUB DUP2 MSTORE SWAP1 PUSH1 0x40 MSTORE SWAP1 PUSH28 0xFFFFFFFFFFFFFFFFFFFFFFFFFFFFFFFFFFFFFFFFFFFFFFFFFFFFFFFF NOT AND PUSH1 0x20 DUP3 ADD DUP1 MLOAD PUSH28 0xFFFFFFFFFFFFFFFFFFFFFFFFFFFFFFFFFFFFFFFFFFFFFFFFFFFFFFFF DUP4 DUP2 DUP4 AND OR DUP4 MSTORE POP POP POP POP PUSH2 0x3F3 JUMP JUMPDEST POP POP POP POP JUMP JUMPDEST PUSH1 0x1 PUSH0 DUP2 SWAP1 SSTORE POP JUMP JUMPDEST PUSH0 PUSH2 0x454 DUP3 PUSH1 0x40 MLOAD DUP1 PUSH1 0x40 ADD PUSH1 0x40 MSTORE DUP1 PUSH1 0x20 DUP2 MSTORE PUSH1 0x20 ADD PUSH32 0x5361666545524332303A206C6F772D6C6576656C2063616C6C206661696C6564 DUP2 MSTORE POP DUP6 PUSH20 0xFFFFFFFFFFFFFFFFFFFFFFFFFFFFFFFFFFFFFFFF AND PUSH2 0x4B8 SWAP1 SWAP3 SWAP2 SWAP1 PUSH4 0xFFFFFFFF AND JUMP JUMPDEST SWAP1 POP PUSH0 DUP2 MLOAD GT ISZERO PUSH2 0x4B3 JUMPI DUP1 DUP1 PUSH1 0x20 ADD SWAP1 MLOAD DUP2 ADD SWAP1 PUSH2 0x473 SWAP2 SWAP1 PUSH2 0x7FF JUMP JUMPDEST PUSH2 0x4B2 JUMPI PUSH1 0x40 MLOAD PUSH32 0x8C379A000000000000000000000000000000000000000000000000000000000 DUP2 MSTORE PUSH1 0x4 ADD PUSH2 0x4A9 SWAP1 PUSH2 0x98A JUMP JUMPDEST PUSH1 0x40 MLOAD DUP1 SWAP2 SUB SWAP1 REVERT JUMPDEST JUMPDEST POP POP POP JUMP JUMPDEST PUSH1 0x60 PUSH2 0x4C6 DUP5 DUP5 PUSH0 DUP6 PUSH2 0x4CF JUMP JUMPDEST SWAP1 POP SWAP4 SWAP3 POP POP POP JUMP JUMPDEST PUSH1 0x60 DUP3 SELFBALANCE LT ISZERO PUSH2 0x514 JUMPI PUSH1 0x40 MLOAD PUSH32 0x8C379A000000000000000000000000000000000000000000000000000000000 DUP2 MSTORE PUSH1 0x4 ADD PUSH2 0x50B SWAP1 PUSH2 0xA18 JUMP JUMPDEST PUSH1 0x40 MLOAD DUP1 SWAP2 SUB SWAP1 REVERT JUMPDEST PUSH0 DUP1 DUP7 PUSH20 0xFFFFFFFFFFFFFFFFFFFFFFFFFFFFFFFFFFFFFFFF AND DUP6 DUP8 PUSH1 0x40 MLOAD PUSH2 0x53C SWAP2 SWAP1 PUSH2 0xA88 JUMP JUMPDEST PUSH0 PUSH1 0x40 MLOAD DUP1 DUP4 SUB DUP2 DUP6 DUP8 GAS CALL SWAP3 POP POP POP RETURNDATASIZE DUP1 PUSH0 DUP2 EQ PUSH2 0x576 JUMPI PUSH1 0x40 MLOAD SWAP2 POP PUSH1 0x1F NOT PUSH1 0x3F RETURNDATASIZE ADD AND DUP3 ADD PUSH1 0x40 MSTORE RETURNDATASIZE DUP3 MSTORE RETURNDATASIZE PUSH0 PUSH1 0x20 DUP5 ADD RETURNDATACOPY PUSH2 0x57B JUMP JUMPDEST PUSH1 0x60 SWAP2 POP JUMPDEST POP SWAP2 POP SWAP2 POP PUSH2 0x58C DUP8 DUP4 DUP4 DUP8 PUSH2 0x598 JUMP JUMPDEST SWAP3 POP POP POP SWAP5 SWAP4 POP POP POP POP JUMP JUMPDEST PUSH1 0x60 DUP4 ISZERO PUSH2 0x5F9 JUMPI PUSH0 DUP4 MLOAD SUB PUSH2 0x5F1 JUMPI PUSH2 0x5B1 DUP6 PUSH2 0x60C JUMP JUMPDEST PUSH2 0x5F0 JUMPI PUSH1 0x40 MLOAD PUSH32 0x8C379A000000000000000000000000000000000000000000000000000000000 DUP2 MSTORE PUSH1 0x4 ADD PUSH2 0x5E7 SWAP1 PUSH2 0xAE8 JUMP JUMPDEST PUSH1 0x40 MLOAD DUP1 SWAP2 SUB SWAP1 REVERT JUMPDEST JUMPDEST DUP3 SWAP1 POP PUSH2 0x604 JUMP JUMPDEST PUSH2 0x603 DUP4 DUP4 PUSH2 0x62E JUMP JUMPDEST JUMPDEST SWAP5 SWAP4 POP POP POP POP JUMP JUMPDEST PUSH0 DUP1 DUP3 PUSH20 0xFFFFFFFFFFFFFFFFFFFFFFFFFFFFFFFFFFFFFFFF AND EXTCODESIZE GT SWAP1 POP SWAP2 SWAP1 POP JUMP JUMPDEST PUSH0 DUP3 MLOAD GT ISZERO PUSH2 0x640 JUMPI DUP2 MLOAD DUP1 DUP4 PUSH1 0x20 ADD REVERT JUMPDEST DUP1 PUSH1 0x40 MLOAD PUSH32 0x8C379A000000000000000000000000000000000000000000000000000000000 DUP2 MSTORE PUSH1 0x4 ADD PUSH2 0x674 SWAP2 SWAP1 PUSH2 0xB58 JUMP JUMPDEST PUSH1 0x40 MLOAD DUP1 SWAP2 SUB SWAP1 REVERT JUMPDEST PUSH0 PUSH20 0xFFFFFFFFFFFFFFFFFFFFFFFFFFFFFFFFFFFFFFFF DUP3 AND SWAP1 POP SWAP2 SWAP1 POP JUMP JUMPDEST PUSH0 PUSH2 0x6A6 DUP3 PUSH2 0x67D JUMP JUMPDEST SWAP1 POP SWAP2 SWAP1 POP JUMP JUMPDEST PUSH2 0x6B6 DUP2 PUSH2 0x69C JUMP JUMPDEST DUP3 MSTORE POP POP JUMP JUMPDEST PUSH0 PUSH1 0x40 DUP3 ADD SWAP1 POP PUSH2 0x6CF PUSH0 DUP4 ADD DUP6 PUSH2 0x6AD JUMP JUMPDEST PUSH2 0x6DC PUSH1 0x20 DUP4 ADD DUP5 PUSH2 0x6AD JUMP JUMPDEST SWAP4 SWAP3 POP POP POP JUMP JUMPDEST PUSH0 DUP1 REVERT JUMPDEST PUSH2 0x6F0 DUP2 PUSH2 0x69C JUMP JUMPDEST DUP2 EQ PUSH2 0x6FA JUMPI PUSH0 DUP1 REVERT JUMPDEST POP JUMP JUMPDEST PUSH0 DUP2 CALLDATALOAD SWAP1 POP PUSH2 0x70B DUP2 PUSH2 0x6E7 JUMP JUMPDEST SWAP3 SWAP2 POP POP JUMP JUMPDEST PUSH0 DUP2 SWAP1 POP SWAP2 SWAP1 POP JUMP JUMPDEST PUSH2 0x723 DUP2 PUSH2 0x711 JUMP JUMPDEST DUP2 EQ PUSH2 0x72D JUMPI PUSH0 DUP1 REVERT JUMPDEST POP JUMP JUMPDEST PUSH0 DUP2 CALLDATALOAD SWAP1 POP PUSH2 0x73E DUP2 PUSH2 0x71A JUMP JUMPDEST SWAP3 SWAP2 POP POP JUMP JUMPDEST PUSH0 DUP1 PUSH0 PUSH1 0x60 DUP5 DUP7 SUB SLT ISZERO PUSH2 0x75B JUMPI PUSH2 0x75A PUSH2 0x6E3 JUMP JUMPDEST JUMPDEST PUSH0 PUSH2 0x768 DUP7 DUP3 DUP8 ADD PUSH2 0x6FD JUMP JUMPDEST SWAP4 POP POP PUSH1 0x20 PUSH2 0x779 DUP7 DUP3 DUP8 ADD PUSH2 0x6FD JUMP JUMPDEST SWAP3 POP POP PUSH1 0x40 PUSH2 0x78A DUP7 DUP3 DUP8 ADD PUSH2 0x730 JUMP JUMPDEST SWAP2 POP POP SWAP3 POP SWAP3 POP SWAP3 JUMP JUMPDEST PUSH2 0x79D DUP2 PUSH2 0x711 JUMP JUMPDEST DUP3 MSTORE POP POP JUMP JUMPDEST PUSH0 PUSH1 0x40 DUP3 ADD SWAP1 POP PUSH2 0x7B6 PUSH0 DUP4 ADD DUP6 PUSH2 0x6AD JUMP JUMPDEST PUSH2 0x7C3 PUSH1 0x20 DUP4 ADD DUP5 PUSH2 0x794 JUMP JUMPDEST SWAP4 SWAP3 POP POP POP JUMP JUMPDEST PUSH0 DUP2 ISZERO ISZERO SWAP1 POP SWAP2 SWAP1 POP JUMP JUMPDEST PUSH2 0x7DE DUP2 PUSH2 0x7CA JUMP JUMPDEST DUP2 EQ PUSH2 0x7E8 JUMPI PUSH0 DUP1 REVERT JUMPDEST POP JUMP JUMPDEST PUSH0 DUP2 MLOAD SWAP1 POP PUSH2 0x7F9 DUP2 PUSH2 0x7D5 JUMP JUMPDEST SWAP3 SWAP2 POP POP JUMP JUMPDEST PUSH0 PUSH1 0x20 DUP3 DUP5 SUB SLT ISZERO PUSH2 0x814 JUMPI PUSH2 0x813 PUSH2 0x6E3 JUMP JUMPDEST JUMPDEST PUSH0 PUSH2 0x821 DUP5 DUP3 DUP6 ADD PUSH2 0x7EB JUMP JUMPDEST SWAP2 POP POP SWAP3 SWAP2 POP POP JUMP JUMPDEST PUSH0 PUSH1 0x80 DUP3 ADD SWAP1 POP PUSH2 0x83D PUSH0 DUP4 ADD DUP8 PUSH2 0x6AD JUMP JUMPDEST PUSH2 0x84A PUSH1 0x20 DUP4 ADD DUP7 PUSH2 0x6AD JUMP JUMPDEST PUSH2 0x857 PUSH1 0x40 DUP4 ADD DUP6 PUSH2 0x794 JUMP JUMPDEST PUSH2 0x864 PUSH1 0x60 DUP4 ADD DUP5 PUSH2 0x6AD JUMP JUMPDEST SWAP6 SWAP5 POP POP POP POP POP JUMP JUMPDEST PUSH0 DUP3 DUP3 MSTORE PUSH1 0x20 DUP3 ADD SWAP1 POP SWAP3 SWAP2 POP POP JUMP JUMPDEST PUSH32 0x5265656E7472616E637947756172643A207265656E7472616E742063616C6C00 PUSH0 DUP3 ADD MSTORE POP JUMP JUMPDEST PUSH0 PUSH2 0x8B1 PUSH1 0x1F DUP4 PUSH2 0x86D JUMP JUMPDEST SWAP2 POP PUSH2 0x8BC DUP3 PUSH2 0x87D JUMP JUMPDEST PUSH1 0x20 DUP3 ADD SWAP1 POP SWAP2 SWAP1 POP JUMP JUMPDEST PUSH0 PUSH1 0x20 DUP3 ADD SWAP1 POP DUP2 DUP2 SUB PUSH0 DUP4 ADD MSTORE PUSH2 0x8DE DUP2 PUSH2 0x8A5 JUMP JUMPDEST SWAP1 POP SWAP2 SWAP1 POP JUMP JUMPDEST PUSH0 PUSH1 0x60 DUP3 ADD SWAP1 POP PUSH2 0x8F8 PUSH0 DUP4 ADD DUP7 PUSH2 0x6AD JUMP JUMPDEST PUSH2 0x905 PUSH1 0x20 DUP4 ADD DUP6 PUSH2 0x6AD JUMP JUMPDEST PUSH2 0x912 PUSH1 0x40 DUP4 ADD DUP5 PUSH2 0x794 JUMP JUMPDEST SWAP5 SWAP4 POP POP POP POP JUMP JUMPDEST PUSH32 0x5361666545524332303A204552433230206F7065726174696F6E20646964206E PUSH0 DUP3 ADD MSTORE PUSH32 0x6F74207375636365656400000000000000000000000000000000000000000000 PUSH1 0x20 DUP3 ADD MSTORE POP JUMP JUMPDEST PUSH0 PUSH2 0x974 PUSH1 0x2A DUP4 PUSH2 0x86D JUMP JUMPDEST SWAP2 POP PUSH2 0x97F DUP3 PUSH2 0x91A JUMP JUMPDEST PUSH1 0x40 DUP3 ADD SWAP1 POP SWAP2 SWAP1 POP JUMP JUMPDEST PUSH0 PUSH1 0x20 DUP3 ADD SWAP1 POP DUP2 DUP2 SUB PUSH0 DUP4 ADD MSTORE PUSH2 0x9A1 DUP2 PUSH2 0x968 JUMP JUMPDEST SWAP1 POP SWAP2 SWAP1 POP JUMP JUMPDEST PUSH32 0x416464726573733A20696E73756666696369656E742062616C616E636520666F PUSH0 DUP3 ADD MSTORE PUSH32 0x722063616C6C0000000000000000000000000000000000000000000000000000 PUSH1 0x20 DUP3 ADD MSTORE POP JUMP JUMPDEST PUSH0 PUSH2 0xA02 PUSH1 0x26 DUP4 PUSH2 0x86D JUMP JUMPDEST SWAP2 POP PUSH2 0xA0D DUP3 PUSH2 0x9A8 JUMP JUMPDEST PUSH1 0x40 DUP3 ADD SWAP1 POP SWAP2 SWAP1 POP JUMP JUMPDEST PUSH0 PUSH1 0x20 DUP3 ADD SWAP1 POP DUP2 DUP2 SUB PUSH0 DUP4 ADD MSTORE PUSH2 0xA2F DUP2 PUSH2 0x9F6 JUMP JUMPDEST SWAP1 POP SWAP2 SWAP1 POP JUMP JUMPDEST PUSH0 DUP2 MLOAD SWAP1 POP SWAP2 SWAP1 POP JUMP JUMPDEST PUSH0 DUP2 SWAP1 POP SWAP3 SWAP2 POP POP JUMP JUMPDEST DUP3 DUP2 DUP4 MCOPY PUSH0 DUP4 DUP4 ADD MSTORE POP POP POP JUMP JUMPDEST PUSH0 PUSH2 0xA62 DUP3 PUSH2 0xA36 JUMP JUMPDEST PUSH2 0xA6C DUP2 DUP6 PUSH2 0xA40 JUMP JUMPDEST SWAP4 POP PUSH2 0xA7C DUP2 DUP6 PUSH1 0x20 DUP7 ADD PUSH2 0xA4A JUMP JUMPDEST DUP1 DUP5 ADD SWAP2 POP POP SWAP3 SWAP2 POP POP JUMP JUMPDEST PUSH0 PUSH2 0xA93 DUP3 DUP5 PUSH2 0xA58 JUMP JUMPDEST SWAP2 POP DUP2 SWAP1 POP SWAP3 SWAP2 POP POP JUMP JUMPDEST PUSH32 0x416464726573733A2063616C6C20746F206E6F6E2D636F6E7472616374000000 PUSH0 DUP3 ADD MSTORE POP JUMP JUMPDEST PUSH0 PUSH2 0xAD2 PUSH1 0x1D DUP4 PUSH2 0x86D JUMP JUMPDEST SWAP2 POP PUSH2 0xADD DUP3 PUSH2 0xA9E JUMP JUMPDEST PUSH1 0x20 DUP3 ADD SWAP1 POP SWAP2 SWAP1 POP JUMP JUMPDEST PUSH0 PUSH1 0x20 DUP3 ADD SWAP1 POP DUP2 DUP2 SUB PUSH0 DUP4 ADD MSTORE PUSH2 0xAFF DUP2 PUSH2 0xAC6 JUMP JUMPDEST SWAP1 POP SWAP2 SWAP1 POP JUMP JUMPDEST PUSH0 DUP2 MLOAD SWAP1 POP SWAP2 SWAP1 POP JUMP JUMPDEST PUSH0 PUSH1 0x1F NOT PUSH1 0x1F DUP4 ADD AND SWAP1 POP SWAP2 SWAP1 POP JUMP JUMPDEST PUSH0 PUSH2 0xB2A DUP3 PUSH2 0xB06 JUMP JUMPDEST PUSH2 0xB34 DUP2 DUP6 PUSH2 0x86D JUMP JUMPDEST SWAP4 POP PUSH2 0xB44 DUP2 DUP6 PUSH1 0x20 DUP7 ADD PUSH2 0xA4A JUMP JUMPDEST PUSH2 0xB4D DUP2 PUSH2 0xB10 JUMP JUMPDEST DUP5 ADD SWAP2 POP POP SWAP3 SWAP2 POP POP JUMP JUMPDEST PUSH0 PUSH1 0x20 DUP3 ADD SWAP1 POP DUP2 DUP2 SUB PUSH0 DUP4 ADD MSTORE PUSH2 0xB70 DUP2 DUP5 PUSH2 0xB20 JUMP JUMPDEST SWAP1 POP SWAP3 SWAP2 POP POP JUMP INVALID LOG2 PUSH5 0x6970667358 0x22 SLT KECCAK256 POP SWAP11 ORIGIN BASEFEE 0x25 0xAD 0xD7 CALLDATACOPY ISZERO 0xFB DUP6 PUSH24 0x757E07FEB31844B3AE678BB5A61417AA752231DB64736F6C PUSH4 0x4300081A STOP CALLER "
				},
				"gasEstimates": {
					"creation": {
						"codeDepositCost": "598000",
						"executionCost": "infinite",
						"totalCost": "infinite"
					},
					"external": {
						"getSupportedTokens()": "infinite",
						"swap(address,address,uint256)": "infinite"
					}
				},
				"methodIdentifiers": {
					"getSupportedTokens()": "d3c7c2c7",
					"swap(address,address,uint256)": "df791e50"
				}
			},
			"storageLayout": {
				"storage": [
					{
						"astId": 735,
						"contract": "SwapTestnetUSDC.sol:SwapTestnetUSDC",
						"label": "_status",
						"offset": 0,
						"slot": "0",
						"type": "t_uint256"
					}
				],
				"types": {
					"t_uint256": {
						"encoding": "inplace",
						"label": "uint256",
						"numberOfBytes": "32"
					}
				}
			},
			"userdoc": {
				"kind": "user",
				"methods": {},
				"notice": "THIS IS AN EXAMPLE CONTRACT THAT USES HARDCODED VALUES FOR CLARITY. THIS IS AN EXAMPLE CONTRACT THAT USES UN-AUDITED CODE. DO NOT USE THIS CODE IN PRODUCTION.",
				"version": 1
			}
		}
	}
}