{
	"data": {
		"bytecode": {
			"linkReferences": {},
			"object": "60c060405234801561000f575f80fd5b50604051610dcc380380610dcc8339818101604052810190610031919061016c565b60015f819055508273ffffffffffffffffffffffffffffffffffffffff1660808173ffffffffffffffffffffffffffffffffffffffff16815250508173ffffffffffffffffffffffffffffffffffffffff1660a08173ffffffffffffffffffffffffffffffffffffffff16815250508073ffffffffffffffffffffffffffffffffffffffff166367a5cd06836040518263ffffffff1660e01b81526004016100d991906101cb565b5f604051808303815f87803b1580156100f0575f80fd5b505af1158015610102573d5f803e3d5ffd5b505050505050506101e4565b5f80fd5b5f73ffffffffffffffffffffffffffffffffffffffff82169050919050565b5f61013b82610112565b9050919050565b61014b81610131565b8114610155575f80fd5b50565b5f8151905061016681610142565b92915050565b5f805f606084860312156101835761018261010e565b5b5f61019086828701610158565b93505060206101a186828701610158565b92505060406101b286828701610158565b9150509250925092565b6101c581610131565b82525050565b5f6020820190506101de5f8301846101bc565b92915050565b60805160a051610bae61021e5f395f818160980152818161011e01526101cb01525f818160770152818160c901526101760152610bae5ff3fe608060405234801561000f575f80fd5b5060043610610034575f3560e01c8063d3c7c2c714610038578063df791e5014610057575b5f80fd5b610040610073565b60405161004e9291906106bc565b60405180910390f35b610071600480360381019061006c9190610744565b6100bf565b005b5f807f00000000000000000000000000000000000000000000000000000000000000007f0000000000000000000000000000000000000000000000000000000000000000915091509091565b6100c7610314565b7f000000000000000000000000000000000000000000000000000000000000000073ffffffffffffffffffffffffffffffffffffffff168373ffffffffffffffffffffffffffffffffffffffff16148061016c57507f000000000000000000000000000000000000000000000000000000000000000073ffffffffffffffffffffffffffffffffffffffff168373ffffffffffffffffffffffffffffffffffffffff16145b610174575f80fd5b7f000000000000000000000000000000000000000000000000000000000000000073ffffffffffffffffffffffffffffffffffffffff168273ffffffffffffffffffffffffffffffffffffffff16148061021957507f000000000000000000000000000000000000000000000000000000000000000073ffffffffffffffffffffffffffffffffffffffff168273ffffffffffffffffffffffffffffffffffffffff16145b610221575f80fd5b61024e3330838673ffffffffffffffffffffffffffffffffffffffff16610361909392919063ffffffff16565b8173ffffffffffffffffffffffffffffffffffffffff1663a9059cbb33836040518363ffffffff1660e01b81526004016102899291906107a3565b6020604051808303815f875af11580156102a5573d5f803e3d5ffd5b505050506040513d601f19601f820116820180604052508101906102c991906107ff565b507fb3822e221d737fbfd984649052a302a883d38a40f7ae591e3bcb5069eedc2a59838383336040516102ff949392919061082a565b60405180910390a161030f6103ea565b505050565b60025f5403610358576040517f08c379a000000000000000000000000000000000000000000000000000000000815260040161034f906108c7565b60405180910390fd5b60025f81905550565b6103e4846323b872dd60e01b858585604051602401610382939291906108e5565b604051602081830303815290604052907bffffffffffffffffffffffffffffffffffffffffffffffffffffffff19166020820180517bffffffffffffffffffffffffffffffffffffffffffffffffffffffff83818316178352505050506103f3565b50505050565b60015f81905550565b5f610454826040518060400160405280602081526020017f5361666545524332303a206c6f772d6c6576656c2063616c6c206661696c65648152508573ffffffffffffffffffffffffffffffffffffffff166104b89092919063ffffffff16565b90505f815111156104b3578080602001905181019061047391906107ff565b6104b2576040517f08c379a00000000000000000000000000000000000000000000000000000000081526004016104a99061098a565b60405180910390fd5b5b505050565b60606104c684845f856104cf565b90509392505050565b606082471015610514576040517f08c379a000000000000000000000000000000000000000000000000000000000815260040161050b90610a18565b60405180910390fd5b5f808673ffffffffffffffffffffffffffffffffffffffff16858760405161053c9190610a88565b5f6040518083038185875af1925050503d805f8114610576576040519150601f19603f3d011682016040523d82523d5f602084013e61057b565b606091505b509150915061058c87838387610598565b92505050949350505050565b606083156105f9575f8351036105f1576105b18561060c565b6105f0576040517f08c379a00000000000000000000000000000000000000000000000000000000081526004016105e790610ae8565b60405180910390fd5b5b829050610604565b610603838361062e565b5b949350505050565b5f808273ffffffffffffffffffffffffffffffffffffffff163b119050919050565b5f825111156106405781518083602001fd5b806040517f08c379a00000000000000000000000000000000000000000000000000000000081526004016106749190610b58565b60405180910390fd5b5f73ffffffffffffffffffffffffffffffffffffffff82169050919050565b5f6106a68261067d565b9050919050565b6106b68161069c565b82525050565b5f6040820190506106cf5f8301856106ad565b6106dc60208301846106ad565b9392505050565b5f80fd5b6106f08161069c565b81146106fa575f80fd5b50565b5f8135905061070b816106e7565b92915050565b5f819050919050565b61072381610711565b811461072d575f80fd5b50565b5f8135905061073e8161071a565b92915050565b5f805f6060848603121561075b5761075a6106e3565b5b5f610768868287016106fd565b9350506020610779868287016106fd565b925050604061078a86828701610730565b9150509250925092565b61079d81610711565b82525050565b5f6040820190506107b65f8301856106ad565b6107c36020830184610794565b9392505050565b5f8115159050919050565b6107de816107ca565b81146107e8575f80fd5b50565b5f815190506107f9816107d5565b92915050565b5f60208284031215610814576108136106e3565b5b5f610821848285016107eb565b91505092915050565b5f60808201905061083d5f8301876106ad565b61084a60208301866106ad565b6108576040830185610794565b61086460608301846106ad565b95945050505050565b5f82825260208201905092915050565b7f5265656e7472616e637947756172643a207265656e7472616e742063616c6c005f82015250565b5f6108b1601f8361086d565b91506108bc8261087d565b602082019050919050565b5f6020820190508181035f8301526108de816108a5565b9050919050565b5f6060820190506108f85f8301866106ad565b61090560208301856106ad565b6109126040830184610794565b949350505050565b7f5361666545524332303a204552433230206f7065726174696f6e20646964206e5f8201527f6f74207375636365656400000000000000000000000000000000000000000000602082015250565b5f610974602a8361086d565b915061097f8261091a565b604082019050919050565b5f6020820190508181035f8301526109a181610968565b9050919050565b7f416464726573733a20696e73756666696369656e742062616c616e636520666f5f8201527f722063616c6c0000000000000000000000000000000000000000000000000000602082015250565b5f610a0260268361086d565b9150610a0d826109a8565b604082019050919050565b5f6020820190508181035f830152610a2f816109f6565b9050919050565b5f81519050919050565b5f81905092915050565b8281835e5f83830152505050565b5f610a6282610a36565b610a6c8185610a40565b9350610a7c818560208601610a4a565b80840191505092915050565b5f610a938284610a58565b915081905092915050565b7f416464726573733a2063616c6c20746f206e6f6e2d636f6e74726163740000005f82015250565b5f610ad2601d8361086d565b9150610add82610a9e565b602082019050919050565b5f6020820190508181035f830152610aff81610ac6565b9050919050565b5f81519050919050565b5f601f19601f8301169050919050565b5f610b2a82610b06565b610b34818561086d565b9350610b44818560208601610a4a565b610b4d81610b10565b840191505092915050565b5f6020820190508181035f830152610b708184610b20565b90509291505056fea2646970667358221220509a324825add73715fb8577757e07feb31844b3ae678bb5a61417aa752231db64736f6c634300081a0033",
			"opcodes": "PUSH1 0xC0 PUSH1 0x40 MSTORE CALLVALUE DUP1 ISZERO PUSH2 0xF JUMPI PUSH0 DUP1 REVERT JUMPDEST POP PUSH1 0x40 MLOAD PUSH2 0xDCC CODESIZE SUB DUP1 PUSH2 0xDCC DUP4 CODECOPY DUP2 DUP2 ADD PUSH1 0x40 MSTORE DUP2 ADD SWAP1 PUSH2 0x31 SWAP2 SWAP1 PUSH2 0x16C JUMP JUMPDEST PUSH1 0x1 PUSH0 DUP2 SWAP1 SSTORE POP DUP3 PUSH20 0xFFFFFFFFFFFFFFFFFFFFFFFFFFFFFFFFFFFFFFFF AND PUSH1 0x80 DUP2 PUSH20 0xFFFFFFFFFFFFFFFFFFFFFFFFFFFFFFFFFFFFFFFF AND DUP2 MSTORE POP POP DUP2 PUSH20 0xFFFFFFFFFFFFFFFFFFFFFFFFFFFFFFFFFFFFFFFF AND PUSH1 0xA0 DUP2 PUSH20 0xFFFFFFFFFFFFFFFFFFFFFFFFFFFFFFFFFFFFFFFF AND DUP2 MSTORE POP POP DUP1 PUSH20 0xFFFFFFFFFFFFFFFFFFFFFFFFFFFFFFFFFFFFFFFF AND PUSH4 0x67A5CD06 DUP4 PUSH1 0x40 MLOAD DUP3 PUSH4 0xFFFFFFFF AND PUSH1 0xE0 SHL DUP2 MSTORE PUSH1 0x4 ADD PUSH2 0xD9 SWAP2 SWAP1 PUSH2 0x1CB JUMP JUMPDEST PUSH0 PUSH1 0x40 MLOAD DUP1 DUP4 SUB DUP2 PUSH0 DUP8 DUP1 EXTCODESIZE ISZERO DUP1 ISZERO PUSH2 0xF0 JUMPI PUSH0 DUP1 REVERT JUMPDEST POP GAS CALL ISZERO DUP1 ISZERO PUSH2 0x102 JUMPI RETURNDATASIZE PUSH0 DUP1 RETURNDATACOPY RETURNDATASIZE PUSH0 REVERT JUMPDEST POP POP POP POP POP POP POP PUSH2 0x1E4 JUMP JUMPDEST PUSH0 DUP1 REVERT JUMPDEST PUSH0 PUSH20 0xFFFFFFFFFFFFFFFFFFFFFFFFFFFFFFFFFFFFFFFF DUP3 AND SWAP1 POP SWAP2 SWAP1 POP JUMP JUMPDEST PUSH0 PUSH2 0x13B DUP3 PUSH2 0x112 JUMP JUMPDEST SWAP1 POP SWAP2 SWAP1 POP JUMP JUMPDEST PUSH2 0x14B DUP2 PUSH2 0x131 JUMP JUMPDEST DUP2 EQ PUSH2 0x155 JUMPI PUSH0 DUP1 REVERT JUMPDEST POP JUMP JUMPDEST PUSH0 DUP2 MLOAD SWAP1 POP PUSH2 0x166 DUP2 PUSH2 0x142 JUMP JUMPDEST SWAP3 SWAP2 POP POP JUMP JUMPDEST PUSH0 DUP1 PUSH0 PUSH1 0x60 DUP5 DUP7 SUB SLT ISZERO PUSH2 0x183 JUMPI PUSH2 0x182 PUSH2 0x10E JUMP JUMPDEST JUMPDEST PUSH0 PUSH2 0x190 DUP7 DUP3 DUP8 ADD PUSH2 0x158 JUMP JUMPDEST SWAP4 POP POP PUSH1 0x20 PUSH2 0x1A1 DUP7 DUP3 DUP8 ADD PUSH2 0x158 JUMP JUMPDEST SWAP3 POP POP PUSH1 0x40 PUSH2 0x1B2 DUP7 DUP3 DUP8 ADD PUSH2 0x158 JUMP JUMPDEST SWAP2 POP POP SWAP3 POP SWAP3 POP SWAP3 JUMP JUMPDEST PUSH2 0x1C5 DUP2 PUSH2 0x131 JUMP JUMPDEST DUP3 MSTORE POP POP JUMP JUMPDEST PUSH0 PUSH1 0x20 DUP3 ADD SWAP1 POP PUSH2 0x1DE PUSH0 DUP4 ADD DUP5 PUSH2 0x1BC JUMP JUMPDEST SWAP3 SWAP2 POP POP JUMP JUMPDEST PUSH1 0x80 MLOAD PUSH1 0xA0 MLOAD PUSH2 0xBAE PUSH2 0x21E PUSH0 CODECOPY PUSH0 DUP2 DUP2 PUSH1 0x98 ADD MSTORE DUP2 DUP2 PUSH2 0x11E ADD MSTORE PUSH2 0x1CB ADD MSTORE PUSH0 DUP2 DUP2 PUSH1 0x77 ADD MSTORE DUP2 DUP2 PUSH1 0xC9 ADD MSTORE PUSH2 0x176 ADD MSTORE PUSH2 0xBAE PUSH0 RETURN INVALID PUSH1 0x80 PUSH1 0x40 MSTORE CALLVALUE DUP1 ISZERO PUSH2 0xF JUMPI PUSH0 DUP1 REVERT JUMPDEST POP PUSH1 0x4 CALLDATASIZE LT PUSH2 0x34 JUMPI PUSH0 CALLDATALOAD PUSH1 0xE0 SHR DUP1 PUSH4 0xD3C7C2C7 EQ PUSH2 0x38 JUMPI DUP1 PUSH4 0xDF791E50 EQ PUSH2 0x57 JUMPI JUMPDEST PUSH0 DUP1 REVERT JUMPDEST PUSH2 0x40 PUSH2 0x73 JUMP JUMPDEST PUSH1 0x40 MLOAD PUSH2 0x4E SWAP3 SWAP2 SWAP1 PUSH2 0x6BC JUMP JUMPDEST PUSH1 0x40 MLOAD DUP1 SWAP2 SUB SWAP1 RETURN JUMPDEST PUSH2 0x71 PUSH1 0x4 DUP1 CALLDATASIZE SUB DUP2 ADD SWAP1 PUSH2 0x6C SWAP2 SWAP1 PUSH2 0x744 JUMP JUMPDEST PUSH2 0xBF JUMP JUMPDEST STOP JUMPDEST PUSH0 DUP1 PUSH32 0x0 PUSH32 0x0 SWAP2 POP SWAP2 POP SWAP1 SWAP2 JUMP JUMPDEST PUSH2 0xC7 PUSH2 0x314 JUMP JUMPDEST PUSH32 0x0 PUSH20 0xFFFFFFFFFFFFFFFFFFFFFFFFFFFFFFFFFFFFFFFF AND DUP4 PUSH20 0xFFFFFFFFFFFFFFFFFFFFFFFFFFFFFFFFFFFFFFFF AND EQ DUP1 PUSH2 0x16C JUMPI POP PUSH32 0x0 PUSH20 0xFFFFFFFFFFFFFFFFFFFFFFFFFFFFFFFFFFFFFFFF AND DUP4 PUSH20 0xFFFFFFFFFFFFFFFFFFFFFFFFFFFFFFFFFFFFFFFF AND EQ JUMPDEST PUSH2 0x174 JUMPI PUSH0 DUP1 REVERT JUMPDEST PUSH32 0x0 PUSH20 0xFFFFFFFFFFFFFFFFFFFFFFFFFFFFFFFFFFFFFFFF AND DUP3 PUSH20 0xFFFFFFFFFFFFFFFFFFFFFFFFFFFFFFFFFFFFFFFF AND EQ DUP1 PUSH2 0x219 JUMPI POP PUSH32 0x0 PUSH20 0xFFFFFFFFFFFFFFFFFFFFFFFFFFFFFFFFFFFFFFFF AND DUP3 PUSH20 0xFFFFFFFFFFFFFFFFFFFFFFFFFFFFFFFFFFFFFFFF AND EQ JUMPDEST PUSH2 0x221 JUMPI PUSH0 DUP1 REVERT JUMPDEST PUSH2 0x24E CALLER ADDRESS DUP4 DUP7 PUSH20 0xFFFFFFFFFFFFFFFFFFFFFFFFFFFFFFFFFFFFFFFF AND PUSH2 0x361 SWAP1 SWAP4 SWAP3 SWAP2 SWAP1 PUSH4 0xFFFFFFFF AND JUMP JUMPDEST DUP2 PUSH20 0xFFFFFFFFFFFFFFFFFFFFFFFFFFFFFFFFFFFFFFFF AND PUSH4 0xA9059CBB CALLER DUP4 PUSH1 0x40 MLOAD DUP4 PUSH4 0xFFFFFFFF AND PUSH1 0xE0 SHL DUP2 MSTORE PUSH1 0x4 ADD PUSH2 0x289 SWAP3 SWAP2 SWAP1 PUSH2 0x7A3 JUMP JUMPDEST PUSH1 0x20 PUSH1 0x40 MLOAD DUP1 DUP4 SUB DUP2 PUSH0 DUP8 GAS CALL ISZERO DUP1 ISZERO PUSH2 0x2A5 JUMPI RETURNDATASIZE PUSH0 DUP1 RETURNDATACOPY RETURNDATASIZE PUSH0 REVERT JUMPDEST POP POP POP POP PUSH1 0x40 MLOAD RETURNDATASIZE PUSH1 0x1F NOT PUSH1 0x1F DUP3 ADD AND DUP3 ADD DUP1 PUSH1 0x40 MSTORE POP DUP2 ADD SWAP1 PUSH2 0x2C9 SWAP2 SWAP1 PUSH2 0x7FF JUMP JUMPDEST POP PUSH32 0xB3822E221D737FBFD984649052A302A883D38A40F7AE591E3BCB5069EEDC2A59 DUP4 DUP4 DUP4 CALLER PUSH1 0x40 MLOAD PUSH2 0x2FF SWAP5 SWAP4 SWAP3 SWAP2 SWAP1 PUSH2 0x82A JUMP JUMPDEST PUSH1 0x40 MLOAD DUP1 SWAP2 SUB SWAP1 LOG1 PUSH2 0x30F PUSH2 0x3EA JUMP JUMPDEST POP POP POP JUMP JUMPDEST PUSH1 0x2 PUSH0 SLOAD SUB PUSH2 0x358 JUMPI PUSH1 0x40 MLOAD PUSH32 0x8C379A000000000000000000000000000000000000000000000000000000000 DUP2 MSTORE PUSH1 0x4 ADD PUSH2 0x34F SWAP1 PUSH2 0x8C7 JUMP JUMPDEST PUSH1 0x40 MLOAD DUP1 SWAP2 SUB SWAP1 REVERT JUMPDEST PUSH1 0x2 PUSH0 DUP2 SWAP1 SSTORE POP JUMP JUMPDEST PUSH2 0x3E4 DUP5 PUSH4 0x23B872DD PUSH1 0xE0 SHL DUP6 DUP6 DUP6 PUSH1 0x40 MLOAD PUSH1 0x24 ADD PUSH2 0x382 SWAP4 SWAP3 SWAP2 SWAP1 PUSH2 0x8E5 JUMP JUMPDEST PUSH1 0x40 MLOAD PUSH1 0x20 DUP2 DUP4 SUB SUB DUP2 MSTORE SWAP1 PUSH1 0x40 MSTORE SWAP1 PUSH28 0xFFFFFFFFFFFFFFFFFFFFFFFFFFFFFFFFFFFFFFFFFFFFFFFFFFFFFFFF NOT AND PUSH1 0x20 DUP3 ADD DUP1 MLOAD PUSH28 0xFFFFFFFFFFFFFFFFFFFFFFFFFFFFFFFFFFFFFFFFFFFFFFFFFFFFFFFF DUP4 DUP2 DUP4 AND OR DUP4 MSTORE POP POP POP POP PUSH2 0x3F3 JUMP JUMPDEST POP POP POP POP JUMP JUMPDEST PUSH1 0x1 PUSH0 DUP2 SWAP1 SSTORE POP JUMP JUMPDEST PUSH0 PUSH2 0x454 DUP3 PUSH1 0x40 MLOAD DUP1 PUSH1 0x40 ADD PUSH1 0x40 MSTORE DUP1 PUSH1 0x20 DUP2 MSTORE PUSH1 0x20 ADD PUSH32 0x5361666545524332303A206C6F772D6C6576656C2063616C6C206661696C6564 DUP2 MSTORE POP DUP6 PUSH20 0xFFFFFFFFFFFFFFFFFFFFFFFFFFFFFFFFFFFFFFFF AND PUSH2 0x4B8 SWAP1 SWAP3 SWAP2 SWAP1 PUSH4 0xFFFFFFFF AND JUMP JUMPDEST SWAP1 POP PUSH0 DUP2 MLOAD GT ISZERO PUSH2 0x4B3 JUMPI DUP1 DUP1 PUSH1 0x20 ADD SWAP1 MLOAD DUP2 ADD SWAP1 PUSH2 0x473 SWAP2 SWAP1 PUSH2 0x7FF JUMP JUMPDEST PUSH2 0x4B2 JUMPI PUSH1 0x40 MLOAD PUSH32 0x8C379A000000000000000000000000000000000000000000000000000000000 DUP2 MSTORE PUSH1 0x4 ADD PUSH2 0x4A9 SWAP1 PUSH2 0x98A JUMP JUMPDEST PUSH1 0x40 MLOAD DUP1 SWAP2 SUB SWAP1 REVERT JUMPDEST JUMPDEST POP POP POP JUMP JUMPDEST PUSH1 0x60 PUSH2 0x4C6 DUP5 DUP5 PUSH0 DUP6 PUSH2 0x4CF JUMP JUMPDEST SWAP1 POP SWAP4 SWAP3 POP POP POP JUMP JUMPDEST PUSH1 0x60 DUP3 SELFBALANCE LT ISZERO PUSH2 0x514 JUMPI PUSH1 0x40 MLOAD PUSH32 0x8C379A000000000000000000000000000000000000000000000000000000000 DUP2 MSTORE PUSH1 0x4 ADD PUSH2 0x50B SWAP1 PUSH2 0xA18 JUMP JUMPDEST PUSH1 0x40 MLOAD DUP1 SWAP2 SUB SWAP1 REVERT JUMPDEST PUSH0 DUP1 DUP7 PUSH20 0xFFFFFFFFFFFFFFFFFFFFFFFFFFFFFFFFFFFFFFFF AND DUP6 DUP8 PUSH1 0x40 MLOAD PUSH2 0x53C SWAP2 SWAP1 PUSH2 0xA88 JUMP JUMPDEST PUSH0 PUSH1 0x40 MLOAD DUP1 DUP4 SUB DUP2 DUP6 DUP8 GAS CALL SWAP3 POP POP POP RETURNDATASIZE DUP1 PUSH0 DUP2 EQ PUSH2 0x576 JUMPI PUSH1 0x40 MLOAD SWAP2 POP PUSH1 0x1F NOT PUSH1 0x3F RETURNDATASIZE ADD AND DUP3 ADD PUSH1 0x40 MSTORE RETURNDATASIZE DUP3 MSTORE RETURNDATASIZE PUSH0 PUSH1 0x20 DUP5 ADD RETURNDATACOPY PUSH2 0x57B JUMP JUMPDEST PUSH1 0x60 SWAP2 POP JUMPDEST POP SWAP2 POP SWAP2 POP PUSH2 0x58C DUP8 DUP4 DUP4 DUP8 PUSH2 0x598 JUMP JUMPDEST SWAP3 POP POP POP SWAP5 SWAP4 POP POP POP POP JUMP JUMPDEST PUSH1 0x60 DUP4 ISZERO PUSH2 0x5F9 JUMPI PUSH0 DUP4 MLOAD SUB PUSH2 0x5F1 JUMPI PUSH2 0x5B1 DUP6 PUSH2 0x60C JUMP JUMPDEST PUSH2 0x5F0 JUMPI PUSH1 0x40 MLOAD PUSH32 0x8C379A000000000000000000000000000000000000000000000000000000000 DUP2 MSTORE PUSH1 0x4 ADD PUSH2 0x5E7 SWAP1 PUSH2 0xAE8 JUMP JUMPDEST PUSH1 0x40 MLOAD DUP1 SWAP2 SUB SWAP1 REVERT JUMPDEST JUMPDEST DUP3 SWAP1 POP PUSH2 0x604 JUMP JUMPDEST PUSH2 0x603 DUP4 DUP4 PUSH2 0x62E JUMP JUMPDEST JUMPDEST SWAP5 SWAP4 POP POP POP POP JUMP JUMPDEST PUSH0 DUP1 DUP3 PUSH20 0xFFFFFFFFFFFFFFFFFFFFFFFFFFFFFFFFFFFFFFFF AND EXTCODESIZE GT SWAP1 POP SWAP2 SWAP1 POP JUMP JUMPDEST PUSH0 DUP3 MLOAD GT ISZERO PUSH2 0x640 JUMPI DUP2 MLOAD DUP1 DUP4 PUSH1 0x20 ADD REVERT JUMPDEST DUP1 PUSH1 0x40 MLOAD PUSH32 0x8C379A000000000000000000000000000000000000000000000000000000000 DUP2 MSTORE PUSH1 0x4 ADD PUSH2 0x674 SWAP2 SWAP1 PUSH2 0xB58 JUMP JUMPDEST PUSH1 0x40 MLOAD DUP1 SWAP2 SUB SWAP1 REVERT JUMPDEST PUSH0 PUSH20 0xFFFFFFFFFFFFFFFFFFFFFFFFFFFFFFFFFFFFFFFF DUP3 AND SWAP1 POP SWAP2 SWAP1 POP JUMP JUMPDEST PUSH0 PUSH2 0x6A6 DUP3 PUSH2 0x67D JUMP JUMPDEST SWAP1 POP SWAP2 SWAP1 POP JUMP JUMPDEST PUSH2 0x6B6 DUP2 PUSH2 0x69C JUMP JUMPDEST DUP3 MSTORE POP POP JUMP JUMPDEST PUSH0 PUSH1 0x40 DUP3 ADD SWAP1 POP PUSH2 0x6CF PUSH0 DUP4 ADD DUP6 PUSH2 0x6AD JUMP JUMPDEST PUSH2 0x6DC PUSH1 0x20 DUP4 ADD DUP5 PUSH2 0x6AD JUMP JUMPDEST SWAP4 SWAP3 POP POP POP JUMP JUMPDEST PUSH0 DUP1 REVERT JUMPDEST PUSH2 0x6F0 DUP2 PUSH2 0x69C JUMP JUMPDEST DUP2 EQ PUSH2 0x6FA JUMPI PUSH0 DUP1 REVERT JUMPDEST POP JUMP JUMPDEST PUSH0 DUP2 CALLDATALOAD SWAP1 POP PUSH2 0x70B DUP2 PUSH2 0x6E7 JUMP JUMPDEST SWAP3 SWAP2 POP POP JUMP JUMPDEST PUSH0 DUP2 SWAP1 POP SWAP2 SWAP1 POP JUMP JUMPDEST PUSH2 0x723 DUP2 PUSH2 0x711 JUMP JUMPDEST DUP2 EQ PUSH2 0x72D JUMPI PUSH0 DUP1 REVERT JUMPDEST POP JUMP JUMPDEST PUSH0 DUP2 CALLDATALOAD SWAP1 POP PUSH2 0x73E DUP2 PUSH2 0x71A JUMP JUMPDEST SWAP3 SWAP2 POP POP JUMP JUMPDEST PUSH0 DUP1 PUSH0 PUSH1 0x60 DUP5 DUP7 SUB SLT ISZERO PUSH2 0x75B JUMPI PUSH2 0x75A PUSH2 0x6E3 JUMP JUMPDEST JUMPDEST PUSH0 PUSH2 0x768 DUP7 DUP3 DUP8 ADD PUSH2 0x6FD JUMP JUMPDEST SWAP4 POP POP PUSH1 0x20 PUSH2 0x779 DUP7 DUP3 DUP8 ADD PUSH2 0x6FD JUMP JUMPDEST SWAP3 POP POP PUSH1 0x40 PUSH2 0x78A DUP7 DUP3 DUP8 ADD PUSH2 0x730 JUMP JUMPDEST SWAP2 POP POP SWAP3 POP SWAP3 POP SWAP3 JUMP JUMPDEST PUSH2 0x79D DUP2 PUSH2 0x711 JUMP JUMPDEST DUP3 MSTORE POP POP JUMP JUMPDEST PUSH0 PUSH1 0x40 DUP3 ADD SWAP1 POP PUSH2 0x7B6 PUSH0 DUP4 ADD DUP6 PUSH2 0x6AD JUMP JUMPDEST PUSH2 0x7C3 PUSH1 0x20 DUP4 ADD DUP5 PUSH2 0x794 JUMP JUMPDEST SWAP4 SWAP3 POP POP POP JUMP JUMPDEST PUSH0 DUP2 ISZERO ISZERO SWAP1 POP SWAP2 SWAP1 POP JUMP JUMPDEST PUSH2 0x7DE DUP2 PUSH2 0x7CA JUMP JUMPDEST DUP2 EQ PUSH2 0x7E8 JUMPI PUSH0 DUP1 REVERT JUMPDEST POP JUMP JUMPDEST PUSH0 DUP2 MLOAD SWAP1 POP PUSH2 0x7F9 DUP2 PUSH2 0x7D5 JUMP JUMPDEST SWAP3 SWAP2 POP POP JUMP JUMPDEST PUSH0 PUSH1 0x20 DUP3 DUP5 SUB SLT ISZERO PUSH2 0x814 JUMPI PUSH2 0x813 PUSH2 0x6E3 JUMP JUMPDEST JUMPDEST PUSH0 PUSH2 0x821 DUP5 DUP3 DUP6 ADD PUSH2 0x7EB JUMP JUMPDEST SWAP2 POP POP SWAP3 SWAP2 POP POP JUMP JUMPDEST PUSH0 PUSH1 0x80 DUP3 ADD SWAP1 POP PUSH2 0x83D PUSH0 DUP4 ADD DUP8 PUSH2 0x6AD JUMP JUMPDEST PUSH2 0x84A PUSH1 0x20 DUP4 ADD DUP7 PUSH2 0x6AD JUMP JUMPDEST PUSH2 0x857 PUSH1 0x40 DUP4 ADD DUP6 PUSH2 0x794 JUMP JUMPDEST PUSH2 0x864 PUSH1 0x60 DUP4 ADD DUP5 PUSH2 0x6AD JUMP JUMPDEST SWAP6 SWAP5 POP POP POP POP POP JUMP JUMPDEST PUSH0 DUP3 DUP3 MSTORE PUSH1 0x20 DUP3 ADD SWAP1 POP SWAP3 SWAP2 POP POP JUMP JUMPDEST PUSH32 0x5265656E7472616E637947756172643A207265656E7472616E742063616C6C00 PUSH0 DUP3 ADD MSTORE POP JUMP JUMPDEST PUSH0 PUSH2 0x8B1 PUSH1 0x1F DUP4 PUSH2 0x86D JUMP JUMPDEST SWAP2 POP PUSH2 0x8BC DUP3 PUSH2 0x87D JUMP JUMPDEST PUSH1 0x20 DUP3 ADD SWAP1 POP SWAP2 SWAP1 POP JUMP JUMPDEST PUSH0 PUSH1 0x20 DUP3 ADD SWAP1 POP DUP2 DUP2 SUB PUSH0 DUP4 ADD MSTORE PUSH2 0x8DE DUP2 PUSH2 0x8A5 JUMP JUMPDEST SWAP1 POP SWAP2 SWAP1 POP JUMP JUMPDEST PUSH0 PUSH1 0x60 DUP3 ADD SWAP1 POP PUSH2 0x8F8 PUSH0 DUP4 ADD DUP7 PUSH2 0x6AD JUMP JUMPDEST PUSH2 0x905 PUSH1 0x20 DUP4 ADD DUP6 PUSH2 0x6AD JUMP JUMPDEST PUSH2 0x912 PUSH1 0x40 DUP4 ADD DUP5 PUSH2 0x794 JUMP JUMPDEST SWAP5 SWAP4 POP POP POP POP JUMP JUMPDEST PUSH32 0x5361666545524332303A204552433230206F7065726174696F6E20646964206E PUSH0 DUP3 ADD MSTORE PUSH32 0x6F74207375636365656400000000000000000000000000000000000000000000 PUSH1 0x20 DUP3 ADD MSTORE POP JUMP JUMPDEST PUSH0 PUSH2 0x974 PUSH1 0x2A DUP4 PUSH2 0x86D JUMP JUMPDEST SWAP2 POP PUSH2 0x97F DUP3 PUSH2 0x91A JUMP JUMPDEST PUSH1 0x40 DUP3 ADD SWAP1 POP SWAP2 SWAP1 POP JUMP JUMPDEST PUSH0 PUSH1 0x20 DUP3 ADD SWAP1 POP DUP2 DUP2 SUB PUSH0 DUP4 ADD MSTORE PUSH2 0x9A1 DUP2 PUSH2 0x968 JUMP JUMPDEST SWAP1 POP SWAP2 SWAP1 POP JUMP JUMPDEST PUSH32 0x416464726573733A20696E73756666696369656E742062616C616E636520666F PUSH0 DUP3 ADD MSTORE PUSH32 0x722063616C6C0000000000000000000000000000000000000000000000000000 PUSH1 0x20 DUP3 ADD MSTORE POP JUMP JUMPDEST PUSH0 PUSH2 0xA02 PUSH1 0x26 DUP4 PUSH2 0x86D JUMP JUMPDEST SWAP2 POP PUSH2 0xA0D DUP3 PUSH2 0x9A8 JUMP JUMPDEST PUSH1 0x40 DUP3 ADD SWAP1 POP SWAP2 SWAP1 POP JUMP JUMPDEST PUSH0 PUSH1 0x20 DUP3 ADD SWAP1 POP DUP2 DUP2 SUB PUSH0 DUP4 ADD MSTORE PUSH2 0xA2F DUP2 PUSH2 0x9F6 JUMP JUMPDEST SWAP1 POP SWAP2 SWAP1 POP JUMP JUMPDEST PUSH0 DUP2 MLOAD SWAP1 POP SWAP2 SWAP1 POP JUMP JUMPDEST PUSH0 DUP2 SWAP1 POP SWAP3 SWAP2 POP POP JUMP JUMPDEST DUP3 DUP2 DUP4 MCOPY PUSH0 DUP4 DUP4 ADD MSTORE POP POP POP JUMP JUMPDEST PUSH0 PUSH2 0xA62 DUP3 PUSH2 0xA36 JUMP JUMPDEST PUSH2 0xA6C DUP2 DUP6 PUSH2 0xA40 JUMP JUMPDEST SWAP4 POP PUSH2 0xA7C DUP2 DUP6 PUSH1 0x20 DUP7 ADD PUSH2 0xA4A JUMP JUMPDEST DUP1 DUP5 ADD SWAP2 POP POP SWAP3 SWAP2 POP POP JUMP JUMPDEST PUSH0 PUSH2 0xA93 DUP3 DUP5 PUSH2 0xA58 JUMP JUMPDEST SWAP2 POP DUP2 SWAP1 POP SWAP3 SWAP2 POP POP JUMP JUMPDEST PUSH32 0x416464726573733A2063616C6C20746F206E6F6E2D636F6E7472616374000000 PUSH0 DUP3 ADD MSTORE POP JUMP JUMPDEST PUSH0 PUSH2 0xAD2 PUSH1 0x1D DUP4 PUSH2 0x86D JUMP JUMPDEST SWAP2 POP PUSH2 0xADD DUP3 PUSH2 0xA9E JUMP JUMPDEST PUSH1 0x20 DUP3 ADD SWAP1 POP SWAP2 SWAP1 POP JUMP JUMPDEST PUSH0 PUSH1 0x20 DUP3 ADD SWAP1 POP DUP2 DUP2 SUB PUSH0 DUP4 ADD MSTORE PUSH2 0xAFF DUP2 PUSH2 0xAC6 JUMP JUMPDEST SWAP1 POP SWAP2 SWAP1 POP JUMP JUMPDEST PUSH0 DUP2 MLOAD SWAP1 POP SWAP2 SWAP1 POP JUMP JUMPDEST PUSH0 PUSH1 0x1F NOT PUSH1 0x1F DUP4 ADD AND SWAP1 POP SWAP2 SWAP1 POP JUMP JUMPDEST PUSH0 PUSH2 0xB2A DUP3 PUSH2 0xB06 JUMP JUMPDEST PUSH2 0xB34 DUP2 DUP6 PUSH2 0x86D JUMP JUMPDEST SWAP4 POP PUSH2 0xB44 DUP2 DUP6 PUSH1 0x20 DUP7 ADD PUSH2 0xA4A JUMP JUMPDEST PUSH2 0xB4D DUP2 PUSH2 0xB10 JUMP JUMPDEST DUP5 ADD SWAP2 POP POP SWAP3 SWAP2 POP POP JUMP JUMPDEST PUSH0 PUSH1 0x20 DUP3 ADD SWAP1 POP DUP2 DUP2 SUB PUSH0 DUP4 ADD MSTORE PUSH2 0xB70 DUP2 DUP5 PUSH2 0xB20 JUMP JUMPDEST SWAP1 POP SWAP3 SWAP2 POP POP JUMP INVALID LOG2 PUSH5 0x6970667358 0x22 SLT KECCAK256 POP SWAP11 ORIGIN BASEFEE 0x25 0xAD 0xD7 CALLDATACOPY ISZERO 0xFB DUP6 PUSH24 0x757E07FEB31844B3AE678BB5A61417AA752231DB64736F6C PUSH4 0x4300081A STOP CALLER "
		},
		"gasEstimates": {
			"creation": {
				"codeDepositCost": "598000",
				"executionCost": "infinite",
				"totalCost": "infinite"
			},
			"external": {
				"getSupportedTokens()": "infinite",
				"swap(address,address,uint256)": "infinite"
			}
		},
		"methodIdentifiers": {
			"getSupportedTokens()": "d3c7c2c7",
			"swap(address,address,uint256)": "df791e50"
		}
	},
	"abi": [
		{
			"inputs": [
				{
					"internalType": "address",
					"name": "usdcToken",
					"type": "address"
				},
				{
					"internalType": "address",
					"name": "compoundUsdcToken",
					"type": "address"
				},
				{
					"internalType": "address",
					"name": "fauceteer",
					"type": "address"
				}
			],
			"stateMutability": "nonpayable",
			"type": "constructor"
		},
		{
			"anonymous": false,
			"inputs": [
				{
					"indexed": false,
					"internalType": "address",
					"name": "tokenIn",
					"type": "address"
				},
				{
					"indexed": false,
					"internalType": "address",
					"name": "tokenOut",
					"type": "address"
				},
				{
					"indexed": false,
					"internalType": "uint256",
					"name": "amount",
					"type": "uint256"
				},
				{
					"indexed": false,
					"internalType": "address",
					"name": "trader",
					"type": "address"
				}
			],
			"name": "Swap",
			"type": "event"
		},
		{
			"inputs": [],
			"name": "getSupportedTokens",
			"outputs": [
				{
					"internalType": "address",
					"name": "usdcToken",
					"type": "address"
				},
				{
					"internalType": "address",
					"name": "compoundUsdcToken",
					"type": "address"
				}
			],
			"stateMutability": "view",
			"type": "function"
		},
		{
			"inputs": [
				{
					"internalType": "address",
					"name": "tokenIn",
					"type": "address"
				},
				{
					"internalType": "address",
					"name": "tokenOut",
					"type": "address"
				},
				{
					"internalType": "uint256",
					"name": "amount",
					"type": "uint256"
				}
			],
			"name": "swap",
			"outputs": [],
			"stateMutability": "nonpayable",
			"type": "function"
		}
	]
}